:020000040800F2
:10400000C0380020AD420008FDFF000805CB0008C5
:10401000E5FF0008096F0008F13B010800000000FF
:10402000000000000000000000000000A5080108DA
:104030005D93000800000000C3420008EF1901086A
:10404000C7420008C7420008C7420008C74200082C
:10405000C7420008C7420008C7420008C74200081C
:10406000C7420008C7420008C7420008C74200080C
:10407000C7420008C7420008C7420008C7420008FC
:10408000C7420008C7420008C7420008C7420008EC
:1040900081350108C7420008C7420008C74200082E
:1040A000C7420008C7420008C7420008C7420008CC
:1040B000C7420008C7420008091D0108C74200089E
:1040C000C7420008C7420008C7420008C7420008AC
:1040D000C7420008B52A0108C7420008C7420008C5
:1040E000DDB10008C74200082F300108C7420008B0
:1040F000C7420008C7420008C7420008C74200087C
:10410000C7420008C7420008C7420008C74200086B
:10411000C1240108C7420008C7420008C74200087E
:10412000C7420008C7420008C7420008C74200084B
:10413000C7420008C7420008C7420008C74200083B
:10414000C7420008C7420008C7420008C74200082B
:10415000C7420008C7420008C7420008C74200081B
:10416000C7420008C7420008C7420008C74200080B
:10417000C7420008C7420008C7420008C7420008FB
:10418000C7420008C7420008C7420008C7420008EB
:10419000C7420008C742000800F002F800F076F8B5
:1041A0000AA090E8000C82448344AAF10107DA4592
:1041B00001D100F06BF8AFF2090EBAE80F0013F06E
:1041C000010F18BFFB1A43F001031847402F0300EB
:1041D000602F03000A444FF0000C10F8013B13F06D
:1041E000070408BF10F8014B1D1108BF10F8015B50
:1041F000641E05D010F8016B641E01F8016BF9D143
:1042000013F0080F1EBF10F8014BAD1C0C1B09D199
:104210006D1E58BF01F801CBFAD505E014F8016B0B
:1042200001F8016B6D1EF9D59142D6D3704700009D
:104230000023002400250026103A28BF78C1FBD8AF
:10424000520728BF30C148BF0B607047662915F080
:104250005F86672915F05C86642900F0AB807329BE
:1042600000F08186002070471FB500F085FF040034
:104270000020002114F09AFC401C60600020002106
:1042800014F0AAFCE0601FBD10B510BD01F0A6F847
:104290001146FFF7E9FF13F0E7FC01F041FB03B41F
:1042A000FFF7F2FF03BC01F06FFD000009488047F3
:1042B00009480047FEE7FEE7FEE7FEE7FEE7FEE708
:1042C000FEE7FEE7FEE7FEE704480549054A064B20
:1042D00070470000F119010899410008C020002032
:1042E000C0380020C0230020C02300200FB41CB51C
:1042F000074B06AA7B4469460090059800F009FE2A
:104300000020694600F018FE1CBC5DF814FB00009C
:10431000410C000070B5044685690068C10601D5EE
:10432000302600E02026C00707D070BDD4E9012167
:1043300030469047206A401C20626D1EF6D570BD45
:1043400070B5044685690078C00707D170BDD4E90F
:10435000012120209047206A401C20626D1EF6D566
:1043600070BD70B50C460546012A05D02878800638
:1043700000D5EA69002302E0012305E05B1C9342BB
:1043800002D2E05C0028F9D1A869E618C01AA86139
:10439000286A184428622846FFF7BCFF04E0D5E9E4
:1043A000012114F8010B9047B442F8D32846FFF7D7
:1043B000C7FF70BD2DE9F04106460024106875293D
:1043C000314616A510D0AFF30080002802DA404233
:1043D00013A507E031688A0701D512A502E0490755
:1043E00004D511A5012401E0AFF3008000210A22C9
:1043F00006F1240709E0B0FBF2FCB0FBF2F302FB8C
:104400001C00303078541846491C0028F3D123464C
:104410002A463046BDE8F04100F00DBB0000000028
:104420002D0000002B000000200000002DE9F05FAF
:10443000894604464FF0000ADFF824B1FB44C0F877
:1044400020A02046E168884700287DD0252806D096
:10445000D4E901219047206A401C2062F1E7002541
:104460005F462046E16888472028064607DB312E54
:1044700005D2B81910F8200C08B10543F1E7A807D8
:1044800001D525F00405C4F81CA00027C4F818A025
:104490002A2E09D030460FF08CFF38B304EB870882
:1044A000303EC8F8186019E059F8041B204604EBA8
:1044B00087029161E1688847012F064618D1E069BB
:1044C000002820DA25F020051DE0D8F8180000EBC0
:1044D000800006EB40003038C8F818002046E1683C
:1044E000884706460FF065FF0028EED1012F0AD05D
:1044F0002E2E08D12046E16888477F1C0646022FF1
:1045000045F02005C4DBA069002803DA404245F0ED
:104510000105A061E80701D025F01005A6B1A6F1BC
:104520004100192802D8203645F400654A46314634
:10453000204625604D46FFF789FE60B1012807D06F
:10454000ED1D25F0070000E007E000F1080978E71D
:1045500005F1040975E730467AE7206ABDE8F09F67
:10456000FC28030070B5064600F056FA04680546BC
:1045700030460A22002100F002F82C6070BD2DE9BF
:10458000F04791460F4680460446002614F8015B2A
:104590002DB100F039FA0068405DC007F6D12B2D2F
:1045A00002D02D2D18D0641E4A463946204600F010
:1045B000DEFC27B13968A14201D1C7F800804FF075
:1045C000020471050BD54042002803DD00F024FAF7
:1045D0000460A007BDE8F08746F48066E4E70028A1
:1045E000F8DA00F019FA04606FF00040F2E710B555
:1045F000431E13F8014F002CFBD105E011F8014BCD
:10460000002C03F8014B03D0521EF7D20021197081
:1046100010BD40EA0103024630B59B0710D14FF0B0
:10462000013400E008C208C91D1B9D4315EAC41FE0
:10463000F8D013F0FF0102F8011B0DD01B0AF8E7B8
:1046400011F8013B002B02F8013B05D011F8013BAA
:10465000002B02F8013BF3D130BD10B5431C02E042
:1046600010F8011B71B18107FAD14FF0013202C875
:104670008C1A8C4314EAC211F9D0C01A0A0603D06E
:10468000C01E10BDC01A10BD0A0401D0801E10BD8E
:104690000902FCD0401E10BDCBB22AB101788B427A
:1046A00003D0401C521EF9D10020704740EA01039C
:1046B00070B59B072ED14FF00136042A2AD308C8C3
:1046C00010C99D1B9D43121F15EAC61517D0D8B2FD
:1046D000E1B2401A50EA056110D198B2A1B2401A75
:1046E00050EA05410AD123F07F4024F07F41401A6F
:1046F00050EA052102D1180EA0EB146070BDA34250
:10470000DBD018BA21BA884201D9012070BD4FF020
:10471000FF3070BD0AB9002070BD10F8013B11F8E0
:10472000014B63B1A3420AD1521E08D010F8013BDD
:1047300011F8014B1BB1A34201D1521EEDD1181B40
:1047400070BD421E12F8013F002BFBD111F8013B56
:10475000002B02F8013BF9D17047032A40F2308068
:1047600010F0030C00F0158011F8013BBCF1020FB2
:10477000624498BF11F801CB00F8013B38BF11F833
:10478000013BA2F1040298BF00F801CB38BF00F84A
:10479000013B11F0030300F06780083AC0F0088085
:1047A00051F8043B083A51F804CBA0E80810F5E7AB
:1047B000121D5CBF51F8043B40F8043BAFF300808E
:1047C000D20724BF11F8013B11F801CB48BF11F803
:1047D000012B24BF00F8013B00F801CB48BF00F8D3
:1047E000012B7047431A28BF9A427FF6B6AF032ABF
:1047F0001044114440F2268010F0030F1EBF11F840
:10480000013D521E00F8013D10F0030F7FF4F6AF9A
:1048100011F0030300F05F84083AC0F00B8051F8F8
:10482000043D083A51F804CD40F8043D40F804CD69
:10483000FFF7F3BF121D5CBF51F8043D40F8043D83
:10484000AFF30080D20724BF11F8013D11F801CD6C
:1048500048BF11F8012C24BF00F8013D00F801CD3C
:1048600048BF00F8012C704710B5203AC0F00B800B
:10487000B1E81850203AA0E81850B1E81850A0E864
:104880001850BFF4F5AF5FEA027C24BFB1E81850BE
:10489000A0E8185044BF18C918C0BDE810405FEA2E
:1048A000827C24BF51F8043B40F8043B08BF7047AA
:1048B000D20728BF31F8023B48BF11F8012B28BFAF
:1048C00020F8023B48BF00F8012B704702F0FF03BD
:1048D00043EA032242EA024200F029BC4FF0000200
:1048E00000B5134694469646203922BFA0E80C50E6
:1048F000A0E80C50B1F12001BFF4F7AF090728BFC1
:10490000A0E80C5048BF0CC05DF804EB890028BF3C
:1049100040F8042B08BF704748BF20F8022B11F065
:10492000804F18BF00F8012B704710B5044610F0F7
:10493000030F08BF11F0030F40F015804FF0013E48
:10494000121FC0F20E8051F8043BA3EB0E0C2CEAB0
:10495000030C1CEACE1C08BF40F8043BF0D0A1F1C8
:10496000040102F10402521E08DB11F8013B002B86
:1049700000F8013BF7D1114600F0D7FB204610BDEF
:104980004FF0013C50F8042B51F8043B9A4221D1DE
:10499000A2EB0C03934313EACC1317D150F8042B6A
:1049A00051F8043B9A4215D1A2EB0C03934313EA4E
:1049B000CC130BD150F8042B51F8043B9A4209D187
:1049C000A2EB0C03934313EACC13DBD04FF00000AF
:1049D000704700BFD01A01BAB1FA81F101F0180195
:1049E00022FA01F0CB40C1F12001DBB2C0B2C01A03
:1049F0002CFA01F3D11A914311EAC311E6D17047A1
:104A0000704770477047000010B500F0B5FB001DFF
:104A100010BD00BF99410100004870475C20002094
:104A200010B5FFF7F9FF006810BD10B50446FFF799
:104A3000F3FF046010BD2DE9F0470D4699469246FC
:104A4000044600F124080168880604D5E06921F0D5
:104A50001001216000E00120A84201DD471B00E0B9
:104A60000027A1697A1902EB0900081AA0612078D1
:104A7000C00602D42046FFF74DFC002608E0D4E92A
:104A800001211AF806009047206A401C761C20621B
:104A90004E45F4DB2078C0060AD52046FFF73AFCE5
:104AA00006E0D4E9012130209047206A401C2062B2
:104AB000381EA7F10107F4DC07E0D4E9012118F85A
:104AC00005009047206A401C2062281EA5F10105C0
:104AD000F3DC2046FFF734FC2078000602D50220E4
:104AE000BDE8F0870120FBE770472DE9FF4F0C463A
:104AF0001E464FF0FF378BB0D2E90001DDF8608031
:104B00000A908A46C1F30A5505B93D460021084678
:104B10004FF00000BAF1000F00F4400005DA00EB9E
:104B200080004FF4400101EA50004FEA9059B9F17A
:104B3000010F00DDB9460A9850EA4A000ED044F64B
:104B40001050A5F2FF3545432F14B8F1000F1ED0C9
:104B50007542291E1EDDC9F100021CE0B8F1010FEB
:104B60004FF0000001D0302103E0F24305E0215472
:104B7000401CB042FBDB30460022002121540B993F
:104B8000C1F80880C1E900200FB0BDE8F08FBD1B5F
:104B90006D1CDEE74A4600DA694206A800F0ACFB6D
:104BA00006AB93E8070003AB83E8070050460A9979
:104BB00001F004F98DE80700A0F500501F380090BF
:104BC0000398002D0ADD42F21F014A4608440023E3
:104BD00003A90390684601F0AFFB09E0A0F500507F
:104BE0004A461F38002303A90390684601F0CEFB14
:104BF0008DE807000004000C03D04FF0FF3041089F
:104C000000E01046B8F1000F03D0002200921546D4
:104C10001EE0751E05D400F0B3FA303262556D1EE9
:104C2000F9D5B3460122084302D000227F1C04E0DC
:104C30002078302801D100227F1E002A099784D0D5
:104C40001DE0112D07DA00F09BFA303262556D1C21
:104C500050EA0102F5D1084302D00098C8B10EE035
:104C60000021681E05E0235C625C63542254401EF0
:104C7000491C8142F7DBAB46A81B401E099000206F
:104C800004F80B000B98099AC0F80880C0E9002BC3
:104C90007AE711264FF0000857E72DE9F04F8846D4
:104CA0000446D21D22F0070191B0D1E90001CDE9FF
:104CB0000A010FF07BFA02460B98C00F01D02D209D
:104CC00007E02068810701D52B2002E0202101EABE
:104CD000C000032A099001D0072A05DB034641469C
:104CE000204600F09BFA0BE12078800601D5E069B0
:104CF00000E00620B8F1650F814606D0B8F1660FD6
:104D000018D0B8F1670F70D131E00020B9F1110F60
:104D1000009001DB112301E009F101030AAA01A9B6
:104D20000CA8FFF7E2FEDDE90C70002609F1010591
:104D3000834647E001204B4600904FF000470AAA07
:104D400001A90CA8FFF7D1FEDDE90DB00C995D4675
:104D5000002610B909F101000D18B9EB050003D4C4
:104D6000C0F1FF3609F10105A5EB09002BE0B9F10F
:104D7000010F01DA4FF001090020B9F1110F009085
:104D8000484601DD112300E003460AAA01A90CA848
:104D9000FFF7ABFEDDE90C704D4600268346207818
:104DA00000070AD4AB4500DA5D4601A8012D04DDF9
:104DB000411911F8011C302907D04F4502DA17F1CB
:104DC000040F04DA012082460FE06D1EEEE7002F8B
:104DD00002DCED1B3E4403E0781CA84200DD7D1C94
:104DE000B81B00F1010A4FF000472078000703D4F8
:104DF000AA4501DB4FF0FF3A0021B7F1004F0DF15A
:104E000043088DF8431024D002202B23002F01DA11
:104E10007F422D230A21021EA0F1010000DC5FB1B8
:104E200097FBF1FC97FBF1F201FB1C7C17460CF1A0
:104E3000300C08F801CDEEE7A8F1010003702188DD
:104E4000090501D5452100E06521A0F1010800F820
:104E5000011C09980FA9A1EB0807FF1D00B1012053
:104E6000411901EBEA70A1693844081A401EA0619B
:104E70002078C00602D42046FFF74CFA099828B1E2
:104E8000D4E901219047206A401C20622078C006A6
:104E900022D52046FFF73EFA1EE0002E04DBB34584
:104EA00002DD01A8805D00E03020D4E901219047B7
:104EB000206A401C2062761CAAF101005FEA000A09
:104EC0000AD100F059F9C0680168405CD4E90121B9
:104ED0009047206A401C2062281EA5F10105DCDCF9
:104EE00007E0D4E9012118F8010B9047206A401C23
:104EF0002062381EA7F10107F3DC2046FFF720FAF5
:104F0000032011B041E6000001694A1C02610878E3
:104F1000704700B58FB0CDE90131002105910549F9
:104F20007944CDE9031011466846FFF77FFA0FB0C8
:104F300000BD0000E5FFFFFF0A6802F8010B0A60F0
:104F4000704710B5436913B1AFF3008001E0FFF77C
:104F500008FA012010BD127800F124010A70002225
:104F60004A700122EDE711684FF0FF32E9E72DE9C1
:104F7000F05F824615468B4600270AF10104B946C8
:104F80000078302801D09DB113E014F8010B0127FF
:104F9000782803D0582801D045B10AE00DB1102D72
:104FA00007D1002714F8010B102502E0082500E0C6
:104FB0000A250026B0460EE005FB080005FB06F1B9
:104FC00001271FFA80F801EB1046B6F5803F00D3A9
:104FD000B94614F8010B294600F060F90028EBDA15
:104FE000BBF1000F05D00FB1641E00E05446CBF8B2
:104FF0000040B9F1000F06D0FFF70EFD022101605D
:10500000C81EBDE8F09F48EA0640FAE70FB4002347
:1050100000B589B00CA900910B99CB60214B7B4462
:105020000693214B7B44079304236FF00042CDE9A4
:1050300001321E4A7A446B4608920246002014F060
:10504000C9FF09B05DF814FB70B506464FF0FF309C
:1050500015460C46324686B00091CDE901016946FD
:105060000020049004A8FFF7D1FF024604982118FD
:1050700025B108B1084600E02046286004980028C1
:105080000DD0002A02DD0098884208D03246081B65
:1050900069460094CDE9010404A8FFF7B7FF06B004
:1050A00070BD000097020000AF020000D3010000B5
:1050B000431A28BF9A427FF6D7AB104410F0030F73
:1050C00011441EBF11F8013D521E00F8013D10F0C1
:1050D000030F7FF4F6AF103AC0F00A8010B531E943
:1050E0001850103A20E91850BFF4F9AFBDE810404D
:1050F000530724BF31E9081020E9081044BF51F8D4
:10510000043D40F8043D12F0030F08BF7047D2077A
:1051100028BF31F8023D48BF11F8012C28BF20F804
:10512000023D48BF00F8012C70474FF000020429EF
:10513000C0F0128010F0030C3FF4D2ABCCF1040CA1
:10514000BCF1020F18BF00F8012BA8BF20F8022BFA
:10515000A1EB0C01FFF7C4BB5FEAC17C24BF00F8E0
:10516000012B00F8012B48BF00F8012B704700000D
:10517000004870475C200020004870477C200020D9
:1051800030B5B0F10A024FEA900E71F100034EEA19
:10519000817EB0EB0E0061EB91014FEA101E4EEAEA
:1051A000017E10EB0E0041EB11114FEA102E4EEA7A
:1051B000016E10EB0E0041EB11214FEA104E4EEA4A
:1051C000014E10EB0E0041EB1141401841F100017E
:1051D0004FEAD00040EA41704FEAD10110EB800560
:1051E0004FEA810444EA907444EB01046D1944EBE6
:1051F0000404521BA3414FF0000348BF0A3200D5FC
:1052000030BD401C41F1000130BD10B50446FFF730
:10521000FBFB0068005D00F0010010BD2DE9F041CE
:105220001F46044603260168072A01F4006004DBD8
:1052300008B116A505E016A503E008B115A500E024
:1052400015A521F010002060A069C01EA0610FB15B
:10525000401EA0612046FFF75DF84FB1D4E901215F
:1052600038469047206A401C2062C01C206206E03D
:10527000206AFAE7D4E9012115F8010B9047761E60
:10528000F8D22046FFF75CF8BDE8F0814E414E00B1
:105290006E616E00494E4600696E66003A2800D283
:1052A000303820F02002412A01D3A2F13700884291
:1052B00001D34FF0FF307047426842B1016811F8E6
:1052C000013B23B1521EC0E900121846704701216C
:1052D000C160881E704742685AB1C368016843B90B
:1052E00083688B4205D0491E521CC0E90012002081
:1052F00070474FF0FF3070472DE9F0478146164662
:105300008AB0354878440DC88DE80D00324878449D
:10531000801C03AC0DC884E80D0041F69B300844A6
:10532000372190FBF1F290FBF1F5A5F1800501FB2F
:1053300012041B3C02D56442012000E00020DFF88B
:1053400098A080460027FA44AAF1BE0A0EE0E007C2
:105350000AD03246684607EB470101230AEB810178
:1053600001F014F88DE8070064107F1C002CEED1CA
:10537000194F7F44AE3F19E0E80715D007EB041042
:105380000DF1180A90E80E008AE80E00C068F0429D
:1053900001D1981908903246012306A903A800F00C
:1053A000F5FF03AB83E807006D10641C002DE3D10B
:1053B0004FF0010332466946B8F1000F03A802D04E
:1053C00000F0BAFF01E000F0E1FFC9E90001C9F80F
:1053D00008200AB0BDE8F087A41B03007546FFF75C
:1053E000C7FEAE4605006946534620F007008546D5
:1053F00018B020B5FEF768FFBDE820404FF000066A
:105400004FF000074FF000084FF0000B21F00701AC
:10541000AC46ACE8C009ACE8C009ACE8C009ACE8EF
:10542000C0098D46704700002DE9FF4F06468BB03E
:105430000878FF2806D0491C2D2805D000244FF0FD
:10544000000908E000200CE00124F8E709EB8903DB
:10545000491C00EB43090878FF28F7D114B1C9F1C2
:1054600000008146107800252C46AA4629462D28A2
:1054700001D02B2804D1521C2D2813D000208246A5
:105480008B461078FF280FD04FF0000C0A21521CD9
:10549000A5FB017804FB018105FB0C11C5194BEB41
:1054A0000104EEE70120EAE7002108464FF0000082
:1054B000BAF1000F02D000EB80004008C0F3815722
:1054C000012F01DD4FF0FF370E9955EA040009EB7B
:1054D00001080BD04FF0020918F5FA7F16DA4FEAEF
:1054E000CA70002F706008DD012007E04FEACA7023
:1054F000C6E900B00FB0BDE8F08F00203060FFF7C4
:105500008BFAC0F800901821084616E0B8F5FA7F2B
:1055100018DD002F02DAF748784401E0F6487844B5
:10552000D0E90010C6E9001040EACA707060FFF7C9
:1055300073FAC0F80090142108460FB0BDE8F04F90
:1055400014F0E3BC002108464FF00000B8F1000160
:10555000099002DAC7F1000200E03A4601DAC8F128
:10556000000106A8FFF7C8FE06AB93E8070003ABEF
:1055700083E8070044F23E005BEA040100905846CD
:1055800004D144F21E012C465D460091210C090411
:10559000014306D10099240444EA15442D0410392E
:1055A000009104F07F41014306D10099240244EAAE
:1055B00015642D020839009104F07041014306D1B1
:1055C0000099240144EA15742D01091F009104F08B
:1055D0004041014306D10099A40044EA9574AD000E
:1055E000891E009104F00041084304D100986D1910
:1055F0006441401E00904FF001033A466846B8F1FE
:10560000000FCDE9014503A902DD00F0D4FE01E061
:1056100000F0A7FEBAF1000F04460D4601D084F059
:105620000044002108464FF00000099940F2FF773E
:10563000484010F00C0F07D124F00040284303D05D
:10564000C4F30A50B84212D1FFF7E6F9C0F800904F
:10565000C4F30A50B8420AD1A8487844D0E90010EF
:10566000C6E9001004F000410843706042E7C6E953
:1056700000543FE72DE9FF4F1F464FF0000A4FF05F
:10568000FF38454691B0D7E90146CDF83CA0FFF779
:1056900073FDC0680168405C1090B96912986D1C78
:1056A0008847396A814688470028F6D1B9F1FF3F1B
:1056B0000AD0002E24F4D06411DDB9F12B0F08D0EC
:1056C000B9F12D0F0BD102E0404615B013E744F4B9
:1056D0008064B96912986D1C8847761E8146600502
:1056E00004A901D52D2000E02B20002E01F1010B93
:1056F0000DF130088DF810003FDDB9F1690F08D0C9
:10570000B9F1490F05D0B9F16E0F02D0B9F14E0FC2
:105710001CD13B4601A8009580E85002DDE9121239
:105720006FF0020014F05AFCC11CCED10EE0B96932
:1057300012986D1C884781461398761E44F40074B5
:1057400005600F98401C002E0F9016DDB9F1300F48
:10575000EDD0B9F1780F02D0B9F1580F0DD10F98F3
:1057600001280AD13B46CDE90054DDE91212001FA1
:10577000029614F031FCC11CA7D1109989453ED185
:1057800044F0800406E01399681CAAF1010A44F46D
:1057900000740860B9696D1C1298761E884730281D
:1057A0008146F0D02BE01099894505D1200603D41D
:1057B000761E44F0800418E048460EF0FAFD08B367
:1057C000761E0DF123018B4544F4007408D2A9F133
:1057D00030000BF8010B200607D5AAF1010003E009
:1057E000200602D40AF101008246A00502D51399D1
:1057F000681C0860B96912986D1C88478146002EA4
:10580000D1DC53E0002E51DDB9F1650F02D0B9F1C2
:10581000450F4BD1A00549D5B9696D1C1298761E6C
:1058200024F440748847002E81460CDD2B2804D0D8
:10583000B9F12D0F07D144F48074B96912986D1C29
:105840008847761E8146E00501D52D2100E02B21F9
:1058500008F8011BCDF8008021E0761E0DF139011A
:10586000884544F400740CD2A9F1300010F0FF0018
:1058700088F8000002D10099884509D908F101088B
:1058800006E0E00501D51E4801E042F20F708246B5
:10589000B96912986D1C8847814613980560002EDF
:1058A00004DD48460EF085FD0028D6D1F96912982E
:1058B0008847FF2053468BF8000088F8000000203E
:1058C0000A900B9004AA0CA90AA8FFF7ADFDA00549
:1058D00002D46FF00100F8E614F0240F12D0E007B4
:1058E0001CD13868DDE90A12031D3B600068C0E97D
:1058F000001213E0181C03000A1C0300CE1A030058
:10590000F1D8FFFF0AA968460EF0E2FCE00705D1D6
:105910003868009A011D3960006802602846D4E6A4
:1059200010B50446AFF300802046BDE81040FEF7F6
:10593000B6BC00002DE9FF4F1F464FF03C0987B071
:105940004FF00042DDE9141001F10108DDF858A024
:1059500002EA405003900020059083460546044625
:105960000490B969461E08988847AAF1010A029076
:10597000BAF1000F3BDD02982E2815D01021FFF759
:105980008DFC00282EDB4FF0010B0599014317D049
:10599000B9F1000F0BDB4A46C11700F0FBF90543D4
:1059A0000C43A9F1040905E0012004900BE008B1C3
:1059B00045F0010501200590049820B9361D02E04C
:1059C000049800B1361FB969089808F101088847A2
:1059D000BBF1000FAAF1010A0290C9D00999C1F8E0
:1059E0000080C5E70298702808D0502806D0F969D1
:1059F00008988847BBF1000F14D04FE000200290B8
:105A00000120BBF1000F049009D0B969089808F192
:105A100001088847AAF10109B9F1000F07DCF9690B
:105A2000089888476FF001000BB0BDE8F08F2B2875
:105A300004D02D280CD14FF0FF300490B96908989C
:105A400008F101088847A9F10109B9F1000FE6DD65
:105A5000411CE4D00A21FFF721FC0028DFDB02997A
:105A600008F1010801EB810100EB41000290B969E6
:105A7000089888470A21FFF711FC099AA9F1010942
:105A8000B9F1000FC2F8008001DD0028E7DAF969FA
:105A9000089888470499029800FB016655EA0400BB
:105AA00004D004F04041090002D006E0039898E0D9
:105AB000A40044EA9574AD00B61E04F0004108004D
:105AC00002D16D196441761E159810F0240F03D091
:105AD0004FF00B095C4803E04FF028096FF07D00A0
:105AE0008246564507DAAAEB06018944B9F1410F0F
:105AF00001DD4FF0410901200021A9F1010200F070
:105B000049F9024628400B462140084301D00121B3
:105B100000E00021501E029143F1FF312840214056
:105B2000084301D0012000E000200299834651EA99
:105B30000B014FD0002108464FF00000039900F4FC
:105B4000400039B100EB80004FF4400100EBD07011
:105B500001EA60008015012802DD4FF0FF3000E00F
:105B600013D0401C36D0029860B3BBF1000F0CD1AB
:105B70004A460120002100F00DF928402140084349
:105B800001D0012000E00020E0B101204A460021C0
:105B900000F000F9034640190A4661412D1A8C4174
:105BA00011D3B9F1400F09DD159810F0240F02D080
:105BB000AAF1340603E0AAF1170600E0761C0025DE
:105BC0004FF0004406E05B1E42F1FF3220EA03057D
:105BD00021EA0204CAF10100B04206DA1B49039827
:105BE00008430190002000900EE0039AC4F3D321F3
:105BF000E80A0A43164940EA44500A433146CDE9CF
:105C0000000268460EF0CAFB159810F0240F0BD066
:105C10001598C00715D13868DDE90012031D3B60F7
:105C20000068C0E900120CE002A869460EF050FBC3
:105C30001598C00705D13868029A011D39600068BF
:105C400002604046F0E6000002FCFFFF0000F07F2B
:105C50000000F03F2DE9FF4F92461D4685B04FF002
:105C60000041DDE9124BDDE914727F1E01EA4B5061
:105C7000414940F0FF4940EA0108002122F020009C
:105C80004928049102D04E2828D04CE03BA00126A0
:105C900007C88DE80700A9690698641C88477F1E1D
:105CA000014606D41DF8060018B121F020018142FA
:105CB0000BD0E96906988847032E34D0082E32D0DD
:105CC0006FF0010009B0BDE8F08F761C032E01D003
:105CD000082EE0D1601CCAF80000DCE7A96906982C
:105CE000641C88477F1E2AD420F02000412826D13A
:105CF000A9690698641C88477F1E20D420F02000E4
:105D00004E281CD1A9690698641C88477F1E48F458
:105D1000002849F48009CAF8004001D4282806D098
:105D2000E969069888475FEACB7012D022E0A9693A
:105D30000698641C88477F1E01D4002803DAE969AD
:105D400006988847BCE72928F1D1641CCAF80040AE
:105D5000E9E71BF0240F07D028680499031D2B6086
:105D60000068C0E9001805E02868021D2A60006884
:105D7000C0F800902046A5E70000F07F494E464954
:105D80004E4954590000000001491820ABBEFEE7FF
:105D900026000200B2F120030AD5C2F1200301FA65
:105DA00002F120FA03F300FA02F041EA030170471E
:105DB00000FA03F14FF00000704770475FEA400CB3
:105DC00008BF91F0000F4FEA8C234FEAC12243EA4B
:105DD00051514FEA1C5018BF00F5F0404FEA300017
:105DE00018BF41F000415FEA6C5C00F02980BCF113
:105DF000FF3F08BF40F080407047130C06BF1204FD
:105E00004FF0100C4FF0000C130E04BF12020CF1F7
:105E1000080C130F04BF12010CF1040C930F04BF04
:105E200092000CF1020CD30F04BF52000CF1010CD4
:105E300011464FF00002A0F11F00A0EB0C007047CC
:105E400011F0004F08BF704731F000413FF4D5AF6B
:105E50000B0C06BF09044FF0100C4FF0000C0B0E9A
:105E600004BF09020CF1080C0B0F04BF09010CF16F
:105E7000040C8B0F04BF89000CF1020CCB0F04BF84
:105E800049000CF1010CCCF12003A0EB0C0022FA2C
:105E900003F302FA0CF241EA030100F1010070473A
:105EA00020F07F4C80EA030023F07F47ACEB070330
:105EB00003F57C5300F0004003F1FF032DE9804916
:105EC0004FEA154B09B44FEA144325EA0B4E24EA76
:105ED00003480FF2042606EB132749083E785FEAD1
:105EE000320203FB0667C7F5000707FB06F64FEA19
:105EF00054374FEAD64606F1020607FB066CCCF192
:105F0000005C4FEA1C472CEA074C07FB06F40CFB2D
:105F100006F504EB15464FEA961634BF00204FF005
:105F200000404FEAD13706FB07FC4FEA1C4C0CFB44
:105F30000BF7D21B03FB0CF761EB07010CFB0EF711
:105F4000B0EB074072EB17420CFB08F734BFA2EB33
:105F50000742B2EB074261EB17414FEA0C444FEAAC
:105F6000910706FB07FC4FEA1C4C0CFB0BF7B0EB50
:105F7000C74072EB573203FB0CF734BFA2EBC742AA
:105F8000B2EBC74261EB57310CFB0EF7B0EBC70029
:105F900072EB57720CFB08F734BFA2EBC702B2EBEF
:105FA000C70261EB5771039F4FEA816141EA921189
:105FB00004EBCC044FEAD1374FEA826206FB07FCC0
:105FC00042EA90124FEA80604FEA1C4C0CFB0BF740
:105FD000D21B03FB0CF761EB07010CFB0EF7B0EBD8
:105FE000074072EB17420CFB08F734BFA2EB0742E5
:105FF000B2EB074261EB17414FEA8C554FEA91072C
:1060000004EB9C2406FB07FC4FEA1C4C0CFB0BF733
:10601000B0EBC74072EB573203FB0CF734BFA2EB77
:10602000C742B2EBC74261EB57310CFB0EF7B0EB46
:10603000C70072EB57720CFB08F734BFA2EBC70224
:10604000B2EBC70261EB577115EB4C254FEA81614A
:1060500041EA92114FEA82624FEAD13742EA901246
:1060600006FB07FC44F100044FEA80604FEA1C4C39
:106070000CFB0BF7D21B03FB0CF761EB07010CFBCE
:106080000EF7B0EB074072EB17420CFB08F734BF7A
:10609000A2EB0742B2EB074261EB174115EB1C156F
:1060A0004FEA813141EA92414FEA823242EA90421C
:1060B0004FEA80304FEA0C7644F1000448EA03438B
:1060C0004EEA0B484FF0000EB2EB080C71EB0307E1
:1060D00024BF624639464EEB0E0E4FF0000B0018FF
:1060E000524149414BEB0B0BB2EB080C71EB030730
:1060F0007BF1000B24BF624639464EEB0E0E4FF08B
:10610000000B0018524149414BEB0B0BB2EB080C52
:1061100071EB03077BF1000B24BF624639464EEB5F
:106120000E0E51EA020718BF46F0010616EB0E7676
:1061300055F1000254F1000103D5BDE88901BDE825
:106140000088BDE88901BDE80048B619524141EB1D
:106150000101A3F10103704780807F7E7D7C7B7A03
:106160007978777676757473727171706F6E6E6D03
:106170006C6C6B6A6A6968686766666564646363A9
:1061800062616160605F5F5E5E5D5D5C5C5B5B5A2F
:106190005A5959585857575656555555545453539C
:1061A00052525251515050504F4F4F4E4E4D4D4DF7
:1061B0004C4C4C4B4B4B4A4A4A4949494848484742
:1061C0004747474646464545454444444443434380
:1061D000434242424241414146EA0646A3F57053DA
:1061E0004FEA164646EA42564FEAD22242EA415266
:1061F00010B54FEAD121A3F1010300F02FF820F0F0
:10620000004000F1020C00F0004701EB0050114685
:10621000BCF5006F40EA070000D210BDBAF1000FD4
:106220000AD01CB503B44FF004004FF004014FF046
:1062300000000FBCBDE810404FF00001BBF1010FA2
:10624000B9BF04484FF0FF310348002140EA07007E
:1062500010BD00BFFFFFEF7F0000F07F002B9C46CA
:1062600030D477002BD01CB54FEA370703B44FF07A
:1062700010004FF01001BAF1000F06D0BCF1000F72
:10628000DCBF40F0080040F008014FF000000FBCF8
:10629000BDE810400BF1010BBBF1010F08BF5FEA35
:1062A000170722BF12F1010211F101014FF0004165
:1062B00043F1000300F0004043EA00007047F9D3C7
:1062C0005708D0E746EA064613F1400F4FEA164654
:1062D0001FDD13F1200FDFBF16430A4600212033D4
:1062E0005B42BED0C3F1200746EA064602FA07F732
:1062F0004FEA164646EA0706C3F1200722FA03F2E0
:1063000001FA07F721FA03F14FF0000342EA07020E
:10631000A7E746EA020646EA06464FEA164646EA76
:106320000106BCBF46EA0646360C4FF000034FF0AC
:1063300000024FF0000194E72DE9804C9A46934605
:1063400070B491E8380007C831EA400C48BF34EA1D
:10635000430C03D5FFF7A4FDFFF780FFF0BCBDE8B9
:10636000008C2DE9804C9A46934670B491E8380031
:1063700007C831EA400C48BF34EA430C03D5FFF7A5
:106380008FFDFFF729FFF0BCBDE8008C2DE9804CA4
:106390009A46934670B491E8380007C810F0804FD1
:1063A00008BF13F0804F03D100F01AF8FFF756FF33
:1063B000F0BCBDE8008C2DE9804C9A46934670B441
:1063C00091E8380007C810F0804F08BF13F0804FE5
:1063D00003D100F005F8FFF7FFFEF0BCBDE8008C2C
:1063E00020F07F4780EA030023F07F4C07EB0C038B
:1063F000A3F57C5300F00040A3F1FE0392F0000FE0
:1064000000F0B38095F0000F00F077802DE901498E
:106410004FEA11404FEA144621EA004800FB06FC0F
:1064200024EA064708FB06F607FB08F800FB07F717
:1064300018EB06484CEB164C4FEA124B18EB07488A
:106440004FEA15464CEB174022EA0B4E0BFB06FCBD
:1064500025EA06470EFB06F607FB0EFE0BFB07F7C9
:106460001EEB064E4CEB164C4FF000061EEB074E93
:106470004CEB174B18EB0B0840F1000018EB0E0B20
:1064800058EB000840F100008F1A4FF000013CBFAC
:10649000C943661B14BFB5EB040C00213CBFC943C4
:1064A000F61B4FEA17444EEA8E0E27EA04454FEAE0
:1064B0001C4704FB07622CEA074C05FB07F70CFBA3
:1064C00005F604FB0CFC16EB074642EB174216EBF5
:1064D0000C4642EB1C421BEB060658EB0202414104
:1064E00046EA9E0601D5BDE80189B619524141EB45
:1064F0000101A3F10103BDE801894FEA14454FEA08
:10650000114724EA054621EA074C05FB07F406FB80
:1065100007F70CFB06F105FB0CFC11EB074144EB04
:1065200017444FEA124711EB0C4144EB1C4422EA9A
:10653000074C05FB07F206FB07F70CFB06F605FB0D
:106540000CFC16EB074642EB174216EB0C4642EBEF
:106550001C456A1854F1000148BF7047B6195241F2
:1065600041EB0101A3F10103704795F0000F37D013
:106570004FEA11424FEA144721EA024624EA074C47
:1065800002FB07F106FB07F70CFB06F402FB0CFC11
:1065900014EB074441EB17414FEA154714EB0C4449
:1065A00041EB1C4125EA074C02FB07F506FB07F708
:1065B0000CFB06F602FB0CFC16EB074645EB1745F9
:1065C00016EB0C4645EB1C42121951F1000148BF75
:1065D0007047B619524141EB0101A3F10103704725
:1065E0004FEA14454FEA114724EA054621EA074CD1
:1065F00005FB07F106FB07F70CFB06F24FF0000660
:1066000005FB0CFC12EB074241EB174112EB0C426D
:1066100051EB1C4148BF7047921841EB0101A3F1B7
:10662000010370472DE9FF5F8AB092469B46002127
:1066300002915E48039152465B46CDE90010DDE9C8
:106640000A010EF083F8059013F0EAF8CDE908018D
:10665000DDE908231046194612F0ECFD0022534BE9
:10666000CDE9020112F01AFFCDE9040112F028FA77
:1066700080468946002213465046594612F09EFD38
:1066800001D289F000490021029148480391CDE9E7
:10669000001018A80FC80EF059F8059013F0C0F8B4
:1066A000CDE90601DDE906231046194612F0C2FDC8
:1066B00000223E4BCDE9020112F0F0FECDE90401CB
:1066C00012F0FEF906460F4600221346DDE91A01D4
:1066D00012F074FD01D287F0004732463B46DDE9F7
:1066E000080112F0A7FDCDE9040140464946DDE965
:1066F000062312F09FFDCDE90201DDE9042312F02B
:10670000A5FF04460D460022284B2046294612F0DC
:106710008FFE02D20024254D08E00022244B2046A3
:10672000294612F04BFD01D20024214D2046294676
:106730000DF046FE04460D4650465946DDE91A2343
:1067400012F078FDCDE90201DDE91823DDE90A0147
:1067500012F070FDCDE90001DDE9022312F084FAA8
:1067600000221346CDE9040112F028FD17D20022C1
:1067700013462046294612F05BFE08D222462B46DD
:106780000C480D4912F062FF04460D4607E0224610
:106790002B460848094912F059FF04460D46204689
:1067A000294612F02FFA0EB0BDE8F09F0000F03F2E
:1067B0000000F0BF4AD8124DFB210940FB2109C05F
:1067C0002DE9FF5F04460D4616461F4632463B46FE
:1067D0003046394612F02EFD8046894622462B4629
:1067E0002046294612F026FD824642464B4612F0CC
:1067F0003BFACDE9000112F063F9CDE9020112F094
:1068000001FA04B0BDE8F09F10B50822F54B1A80DC
:1068100004225A803F229A802322DA8003221A819E
:106820002323F04A5381FA2393812323D381B22275
:10683000EC4B1A822323EB4A53824FF4C9739382A1
:106840002323D3824FF4AB72E64B1A832323E54A0A
:1068500053833F2393833E23D3830322E14B1A8444
:106860003E23E04A5384FA2393843E23D384B22206
:10687000DC4B1A853E23DB4A53854FF4C97393855D
:106880003E23D3854FF4AB72D64B1A863E23D54AAE
:1068900053863F2393865923D3860322D14B1A87ED
:1068A0005923D04A5387FA2393875923D387B22297
:1068B000CC4BA3F840205923CA4AA2F842304FF4E7
:1068C000C973A2F844305923A2F846304FF4AB7292
:1068D000C44BA3F848205923C24AA2F84A304FF4C7
:1068E000C973A2F84C300423A2F84E300822BE4BE4
:1068F0001A8004225A80A0229A802822DA802D222F
:106900001A812823B84A5381752393814823D38160
:106910002D22B54B1A824823B34A5382B92393835D
:106920008823D3832D22B04B1A836823AE4A538326
:1069300040F2451393848823D384AE22AA4B1A8451
:106940006823A94A5384B9239385A823D38540F2A9
:106950004712A54B1A856823A34A538540F2451375
:106960009386A823D3862D229F4B1A8688239E4A7E
:106970005386B9239387C823D3872D229A4B1A872E
:10698000A823994A538740F24513A2F84430C823FC
:10699000A2F846302D22944BA3F84020C823924AF7
:1069A000A2F84230B923A2F84C30E823A2F84E30C6
:1069B0002D228D4BA3F84820E8238B4AA2F84A30B9
:1069C00040F24513A2F85430E823A2F85630BE2214
:1069D000854BA3F850204823834AA2F85230FF2366
:1069E00093824823D3820822804B1A8004225A8043
:1069F00050221A8124237D4A5381F023938124233A
:106A0000D3815022794B1A824023784A5382F02353
:106A100093824023D3825022744B1A835C23734A9F
:106A20005383F02393835C23D38350226F4B1A84C8
:106A300098236E4A53844FF4827393849823D384AB
:106A400050226A4B1A85B423684A53854FF48273E7
:106A50009385B423D3855022644B1A86D023634A8E
:106A600053864FF482739386D023D38650225F4B94
:106A70001A87EC235D4A53874FF482739387EC2384
:106A8000D38708225A4B1A8004225A8008221A817E
:106A90002823574A5381442393812823D381B0224A
:106AA000534B1A822823524A5382EC239382282381
:106AB000D3824FF4AC724E4B1A8328234C4A538333
:106AC0004FF4CA7393832823D3830822484B1A8434
:106AD0004323474A53845022454B1A854323444A53
:106AE0005385B022424B1A864323414A53864FF4C2
:106AF00088723F4B1A8743233D4A53874FF4AC7249
:106B00003B4BA3F840204323394AA2F842304FF4CC
:106B1000D672374BA3F848204323354AA2F84A30AF
:106B20001422344B1A805E225A8014229A807923D0
:106B3000304AD38014222F4B1A8194232D4A53813B
:106B400014222C4B9A81AF232A4AD3811422294B39
:106B50001A82CA23274A53821422264B9A82E5239B
:106B6000244AD3821422234B1A834FF48073214A80
:106B70005383002033E0362200EB80031E4C24F8C0
:106B80002320982200EB800304EB83039A80FA22EF
:106B900000EB800304EB83031A814FF4AE7200EB29
:106BA000800304EB83039A814FF4DF7200EB8003D0
:106BB00004EB83031A8200210DE00E4A02EB8002EF
:106BC000528800EB80030C4C04EB830303EB81033E
:106BD0005A804A1C91B20529EFDB421C90B207286B
:106BE000C9DB10BD54180020A4180020FC18002098
:106BF00044190020A4190020C019002010B5014636
:106C00000022012308782D2802D1531E491C03E0DD
:106C100008782B2800D1491C0EE00878302809DBC1
:106C20000878392806DC0878303802EB820400EB5B
:106C3000440200E002E0491C0029EED100BF02FB43
:106C400003F010BD10B5054B1880054B1980054B9E
:106C50001A800023044C238010BD0000E80C0020A3
:106C6000EA0C0020EC0C0020EE0C002008B50121FD
:106C7000102009F099FC10208DF803000420ADF8D5
:106C8000000003208DF802006946034804F0D0FE9E
:106C900004200149486108BD0010014014480088E3
:106CA00020B314480088401C124908800846008818
:106CB00011490988884203DC04201049086115E065
:106CC00004200E4948610B4800880D490988884214
:106CD0000CDD01200749088005480088401E80B26D
:106CE0000349088010B1042004490861704700007E
:106CF000EC0C0020EE0C0020E80C002000100140FD
:106D0000EA0C002000B502221E210520FFF79AFFA1
:106D100000BD000001460848007B022807D1074853
:106D20000078012803D10648008880B270470548E2
:106D300030F81100FAE700002414002015010020AB
:106D4000980100207001002010B500214CF218605D
:106D500006F0F4FE4F484078012807D118234EA2D0
:106D600040F22311BE2006F099FE2CE049484078FD
:106D7000022807D118234AA240F22311BE2006F0B0
:106D80008DFE20E043484078032807D1182346A20F
:106D900040F22311BE2006F081FE14E0182344A225
:106DA00040F22311BE2006F079FE182342A240F2E1
:106DB0002311881E06F072FE182340A240F2231110
:106DC000EE2006F06BFE3E480078A8B93D480078FA
:106DD000012808D118233CA24FF492714FF4CC70D3
:106DE00006F05CFE1DE0182339A24FF492714FF4B7
:106DF000CC7006F053FE14E032480078012808D128
:106E0000182335A24FF492714FF4CC7006F046FE71
:106E100007E0182332A24FF492714FF4CC7006F0C1
:106E20003DFE28480079012813D126480078012822
:106E300007D118232CA24FF49271122006F02EFED7
:106E400026E018232AA24FF49271122006F026FEA3
:106E50001EE01C480079022813D11A480078012846
:106E600007D1182324A24FF49271122006F016FEC7
:106E70000EE0182322A24FF49271122006F00EFEAB
:106E800006E018230AA24FF49271122006F006FEC3
:106E900010BD0000881400204D41582D0000000056
:106EA0004D494E2D000000004156472D00000000C6
:106EB0002020202000000000202020202020200072
:106EC000CD010020321400204C4F43414C200000E3
:106ED000B1BEB5D82020000052454D4F54450000AA
:106EE000D4B6B3CC20200000204D414E000000005D
:106EF000CAD6B6AF0000000020455854000000007C
:106F0000CDE2B2BF0000000000BFFEE710B50BF0FD
:106F1000BFFB0BF031F90BF0BFFA0CF05BFA10BDC0
:106F20002DE9FC4707468946904600208DF8000071
:106F300001904C48814546D140460BF0CDFE0546B8
:106F4000042D3ADB2A46FE214046FDF7A5FB064606
:106F50007EB3A6EB0800C4B224B120460BF09CFE21
:106F6000281BC5B2042D28DB701C06460478201DA2
:106F7000854213DBE01C81B230460DF085FB48B939
:106F8000211DC8B20BF088FE8DF80040701C06462B
:106F9000019012E001200BF07FFE0EE032480078F5
:106FA00032280AD100203049087001200BF074FE0D
:106FB00003E0FFE728460BF06FFEDDE90001C7E9BB
:106FC0000001BDE8FC872948814545D140460BF0CA
:106FD0001FFE0546042D3ADB2A46FE214046FDF7FA
:106FE0005BFB06467EB3A6EB0800C4B224B1204684
:106FF0000BF050FD281BC5B2042D28DB701C064683
:107000000478201D854213DBE01C81B230460DF070
:107010003BFB48B9211DC8B20BF03CFD8DF8004088
:10702000701C0646019012E001200BF033FD0EE0CB
:107030000F48007814280AD100200D49087001205B
:107040000BF028FD03E0FFE728460BF023FDDDE908
:107050000001C7E90001B4E7DDE90001C7E900016B
:1070600000BFAEE7004C0040711200200038014024
:1070700070120020F0B5C1B005460F461446FE2040
:107080008DF804008DF80540224639460DF10600C2
:10709000FDF763FB611C0DF105000DF0F5FA0646E6
:1070A000311201AAA01C1154E01C16540948854253
:1070B00005D1201DC1B201A80BF042FE07E0064831
:1070C000854204D1201DC1B201A80BF0BBFD41B027
:1070D000F0BD0000004C00400038014070B5C0B069
:1070E00005460C46FE208DF800008DF80140224632
:1070F00029460DF10200FDF730FB611C0DF1010086
:107100000DF0C2FA06463112A01C0DF80010F1B2C3
:10711000E01C0DF80010201DC1B268460CF06CFB9D
:1071200040B070BD70B505460C46142C6FD2DFE838
:1071300004F00A0F14191E23282D32373C41464B08
:1071400050555A5F646933A12846FDF7CFF85EE0D9
:1071500032A12846FDF7CAF859E032A12846FDF7CA
:10716000C5F854E031A12846FDF7C0F84FE031A141
:107170002846FDF7BBF84AE030A12846FDF7B6F8EF
:1071800045E030A12846FDF7B1F840E02FA12846A0
:10719000FDF7ACF83BE02FA12846FDF7A7F836E055
:1071A0002EA12846FDF7A2F831E02EA12846FDF7D2
:1071B0009DF82CE02DA12846FDF798F827E02DA199
:1071C0002846FDF793F822E02CA12846FDF78EF81B
:1071D0001DE02CA12846FDF789F818E02BA12846D0
:1071E000FDF784F813E02BA12846FDF77FF80EE0A9
:1071F0002AA12846FDF77AF809E02AA12846FDF7DA
:1072000075F804E029A12846FDF770F800BF00BF1B
:1072100070BD000030487A20202000003130487ACC
:10722000202000003330487A2020000031303048E0
:107230007A200000313230487A2020003230304845
:107240007A200000343030487A200000383030484E
:107250007A200000316B487A20200000326B487A97
:1072600020200000346B487A20200000386B487AD8
:107270002020000031306B487A20000031356B4807
:107280007A20000032306B487A20000033306B489F
:107290007A20000034306B487A20000035306B488B
:1072A0007A20000038306B487A2000003130306B93
:1072B000487A000038B5044640F23F1340F2DF122E
:1072C0000021084606F088FC00204FF4A0734FF41C
:1072D000F0720146009005F08FFE4FF61F0020234C
:1072E000802200210090084605F086FE4FF6E071EE
:1072F0004FF61F0006F022FC182366A2032120206F
:1073000006F0CCFB182365A23421032006F0C6FB4F
:10731000182364A234216A2006F0C0FB4FF6FF71E7
:10732000002006F00BFC182361A23421E02006F0B7
:10733000B5FB4FF6E071002006F000FC18235FA2B9
:10734000C821032006F0AAFB18235EA2E82103202F
:1073500006F0A4FB18235DA24FF48471032006F00D
:107360009DFB042C4AD14FF6FF704FF496734FF4F7
:10737000F072142100904FF4B47005F03DFE00202F
:107380005D234FF4F0725A210090880005F034FE1E
:107390000020A3234FF4F072A02100904FF4B470AA
:1073A00005F02AFE0020E9234FF4F072E621009058
:1073B0004FF4B47005F020FE00214FF6FF7006F088
:1073C000BDFB182343A22B214FF4BA7006F066FBD5
:1073D000182343A271214FF4BA7006F05FFB182303
:1073E00042A2B7214FF4BA7006F058FB182341A20D
:1073F000FD214FF4BA7006F051FB2FE0032C2DD184
:107400004FF6FF704FF496734FF4F0721421009012
:107410004FF4B47005F0F0FD00205D234FF4F072DE
:107420005A210090880005F0E7FD0020A3234FF4C7
:10743000F072A02100904FF4B47005F0DDFD002043
:10744000E9234FF4F072E62100904FF4B47005F098
:10745000D3FD00214FF6FF7006F070FB40F2FF7184
:10746000002006F06BFB182324A26A21032006F0FB
:1074700015FB4FF6E071002006F060FB182321A2F7
:107480008A21032006F00AFB2048007809F0EEFE6E
:1074900038BD0000D0A3D7BC00000000B5E7C6BDD2
:1074A0003A315600C6ABD6C33A306D5600000000E4
:1074B000D7E8BFB93A313030A6B80000C6B5C2CA65
:1074C0003A000000CFEEC4BF3A000000D7B4CCAC05
:1074D0003A000000C8B7C8CFD0A3D7BC0000000056
:1074E000CDCBB3F6D0A3D7BC0000000020C9CFD2CB
:1074F000BBB2BD0020CFC2D2BBB2BD00B2BDD6E888
:107500003A000000B2D9D7F73A0000002E00002060
:1075100070B505460C460B2C56D009DC0B2C20D23E
:10752000DFE804F01B20252A2F34393E43484D0064
:10753000112C71D008DCA4F10C000528EFD2DFE893
:1075400000F0484D52575C00122C76D0202C79D098
:10755000212C6CD0302C04D190E04CA12846FCF7B3
:10756000C5FE90E04CA12846FCF7C0FE8BE04DA183
:107570002846FCF7BBFE86E04DA12846FCF7B6FE88
:1075800081E04EA12846FCF7B1FE7CE04EA12846E2
:10759000FCF7ACFE77E04FA12846FCF7A7FE72E0AF
:1075A0004FA12846FCF7A2FE6DE050A12846FCF74B
:1075B0009DFE68E050A12846FCF798FE63E051A1CB
:1075C0002846FCF793FE5EE051A12846FCF78EFEAC
:1075D00059E052A12846FCF789FE54E052A1284602
:1075E000FCF784FE4FE053A12846FCF77FFE4AE0FB
:1075F00053A12846FCF77AFE45E05448007801285C
:1076000004D153A12846FCF771FE03E053A128469C
:10761000FCF76CFE37E0FFE74C480078012807D103
:1076200051A12846FCF762FE06E006E00AE017E0FA
:1076300050A12846FCF75AFE25E051A12846FCF748
:1076400055FE20E041480078012804D14EA128468B
:10765000FCF74CFE03E04EA12846FCF747FE12E083
:107660003A480078012804D14BA12846FCF73EFE99
:1076700003E04BA12846FCF739FE04E04AA1284666
:10768000FCF734FE00BF00BF70BD0000444453202F
:1076900020202020200000005273343735A6B82067
:1076A000200000004769332E3136202020000000E2
:1076B0005273313530A6B8202000000047693130C0
:1076C0002020202020000000527334372E35A6B829
:1076D00020000000476933312E36202020000000B2
:1076E00052733135A6B820202000000047693130A0
:1076F00030202020200000005273342E37356BA636
:10770000B8000000527331356BA6B820200000008D
:10771000527334372E356BA6B80000004775312EF2
:1077200035382020200000004775352020202020FB
:1077300020000000477531352E3820202000000041
:107740004775353020202020200000003214002012
:107750004F50454E2020202020000000BFAAC2B775
:10776000D0A3D7BC2000000053484F525420202003
:1077700020000000B6CCC2B7D0A3D7BC20000000C8
:107780005A7374640000000053484F5254000000C4
:10779000B6CCC2B7200000004F50454E200000007C
:1077A000BFAAC2B720000000B1A3B4E6CAFDBEDD87
:1077B0002000000070B505460C46164800780128E8
:1077C00015D115480078022811D1012C04D113A13C
:1077D0002846FCF7B6FF1BE024B913A12846FCF7A6
:1077E000B0FF15E013A12846FCF7ABFF10E0012C19
:1077F00004D113A12846FCF7A4FF09E024B913A182
:107800002846FCF79EFF03E013A12846FCF799FFEA
:1078100070BD0000321400202D00002020444F498C
:107820004E4720200000000053554343455353204A
:107830000000000020204641494C202000000000AC
:10784000D5FDD4DAD0A3D7BC00000000D0A3D7BCAC
:10785000CDEAB3C900000000D0A3D7BCCAA7B0DCF2
:10786000000000002DE9F0418AB005460C46BB48F7
:1078700003C808F07BFDB94806C801A801F070F9FB
:10788000B748DDE9011206C0B648007A01287DD16B
:10789000B54A5169B24A106812F0C2FA8046B2493C
:1078A000012303AA486905A90FF03EF903AAAF49CD
:1078B000404610F013F803A9AD48FCF7AAFEAD4905
:1078C000AB480FF095FFAB4903A80FF091FFAA4812
:1078D000007800285FD1A948407805280DD1A74835
:1078E000407800EB8002A64811182046FCF729FFDB
:1078F000A4A12046FCF725FF32E0A04840780628E6
:1079000015D19E48407800EB80029D481118204612
:10791000FCF717FF994800789B4A02EB400120468C
:10792000FCF70FFF97A12046FCF70BFF18E097A18B
:107930002046FCF706FF9148407800EB8002904813
:1079400011182046FCF7FDFE8C4800788E4A02EBA9
:1079500040012046FCF7F5FE8AA12046FCF7F1FE27
:1079600004228BA12846FCF742FE07227F492846C5
:10797000FCF73DFE03227E492846FCF738FE07222D
:1079800005A92046FCF733FE032200E004E003A92A
:107990002046FCF72CFEDFE071490123744A086899
:1079A00072490FF0C1F87548807838B17348807813
:1079B000032803D071488078042807D16849002340
:1079C0006C4A486874490FF0AFF823E0644948688E
:1079D000002112F0E9F90BD86149486811F020FF45
:1079E000064632460B466DA16B48FCF77FFC0AE069
:1079F0005B49486811F014FF064632460B4669A100
:107A00006548FCF773FC644880792E2802D1202059
:107A100061498871574956480FF0EAFE5648007888
:107A20000028B8D15548407805280DD153484078F2
:107A300000EB8002524811182846FCF782FE51A143
:107A40002846FCF77EFE32E04C484078062815D1E7
:107A50004A48407800EB8002494811182846FCF754
:107A600070FE46480078484A02EB40012846FCF781
:107A700068FE44A12846FCF764FE18E043A12846AE
:107A8000FCF75FFE3D48407800EB80023C4811184F
:107A90002846FCF756FE394800783B4A02EB400185
:107AA0002846FCF74EFE37A12846FCF74AFE07227F
:107AB0002E492846FCF79BFD03222D492846FCF75A
:107AC00096FD2E484078052806D138A12046FCF7BF
:107AD00038FE0AB0BDE8F08128488078032810D12C
:107AE0002AA12046FCF72DFE24488078334A02EB79
:107AF00080012046FCF725FE22A12046FCF721FE4E
:107B000020E01E48807804280CD11C4880782B4A3D
:107B100002EB80012046FCF714FE1AA12046FCF778
:107B200010FE0FE026A12046FCF70BFE13488078DC
:107B3000224A02EB80012046FCF703FE11A12046F9
:107B4000FCF7FFFD072214492046FCF750FD0322F5
:107B500008492046FCF74BFD00BFBAE708000020AB
:107B6000100000202414002088140020901200200F
:107B7000180000201D000020140100200400002037
:107B800013A201083A0000004EA2010820000000E4
:107B900020A1F83A00000000A41200202025362E73
:107BA00034660000252B362E3466000020202D2D53
:107BB0002D2D2D2D2D2D20200000000036A2010896
:107BC0002020000070B58AB004460020079008907D
:107BD0000990049005900690019002900390002176
:107BE0004CF2186005F0AAFF3E484078002876D095
:107BF00020460FF0E3FF00285FD03A4800780028C5
:107C00005BD138484168204612F0CEF801D23548A1
:107C1000446034488168204611F0C6FF01D23148E3
:107C200084603048C168204611F026FE2D49C860A6
:107C300008460069401C086108464078012806D1C2
:107C4000012304AA486807A90EF06EFF1BE025482F
:107C50004078022807D12349012304AA886807A98C
:107C60000EF062FF0FE01F49086911F089FF064618
:107C70001C49C868314611F06DFE0546012304AA6F
:107C800007A90EF051FF01A904A80FF0B1FD1823B8
:107C900004AA40F22311EE2005F000FF182307AAE2
:107CA00040F22311881E05F0F9FE07A90E48FCF7E3
:107CB000B0FC04A90C48FCF744FD20460FF07EFF01
:107CC00068B90848007850B9182308A240F2231177
:107CD000881E05F0E3FE07A10348FCF79AFC0AB0F2
:107CE00070BD000088140020B8120020202D2D4FF8
:107CF0004C2D2D002D2D4F4C2D2D000000B591B099
:107D000014210CA8FCF7EAFD142107A8FCF7E6FDF6
:107D100000200490059006900190029003908C48FA
:107D2000007940B18B48007828B98B48C07A012887
:107D300001D011B000BD89480078012806D18848DB
:107D400000688849086088480068486007A90CA84E
:107D5000FFF788FD85490868FFF734FF8148006810
:107D60007F4908607F4840687F4908608048007804
:107D7000042802D106F04EF8DBE77D48007800B118
:107D8000D7E701227BA10CA8FCF731FC012279A1E5
:107D900007A8FCF72CFC03220CA97748FCF7C5FDCB
:107DA0002C207549C87007220DA97348001DFCF7E7
:107DB000BCFD03220DF13B016F480B30FCF7B5FD14
:107DC0002C206D498873032207A96B480F30FCF7FC
:107DD000ACFD2C2068498874072208A96648133036
:107DE000FCF7A3FD03220DF1270163481A30FCF7CD
:107DF0009CFD00206049487757484079002862D1AF
:107E000004220CA901A8FCF790FD00208DF80800C1
:107E10004FF6E07105F092FE322301AA9821052069
:107E200005F03CFE07220DA901A8FCF77EFD00200D
:107E30008DF80B00502301AA7C21692005F02EFE4D
:107E400003220DF13B0101A8FCF76FFD00208DF826
:107E50000700322301AA9821D80005F01FFE40F246
:107E6000FF71002005F06AFE042207A901A8FCF7B3
:107E70005CFD00208DF80800322301AAE5210520D1
:107E800005F00CFE072208A901A8FCF74EFD002012
:107E90008DF80B00402301AAD6218C2005F0FEFDB1
:107EA00003220DF1270101A8FCF73FFD00208DF80A
:107EB0000700322301AAE521D80005F0EFFD0020DC
:107EC0002449087042E02248007930B9274A5168B5
:107ED000106804AA04F068FA17E02848007848B946
:107EE0001C480078012810D124490870002004F0B3
:107EF00049FD0AE01D4A5168106804AA04F054FACA
:107F00000020144908701D4908704FF47841002082
:107F100005F014FE502304AA78216E2005F0BEFD62
:107F20004FF6E071002005F009FE24230CAAC821B9
:107F3000822005F0B3FD40F2FF71002005F0FEFD48
:107F4000242307AAF021822005F0A8FD00BFF0E657
:107F5000321400201C120020241400208814002059
:107F6000240000200800002028000020100000202D
:107F70001401002020000000F01500201D12002038
:107F80002DE9FF4700200090F7480078012803D131
:107F900008F0CEFABDE8FF87F4480078002877D0D3
:107FA0004FF6FF71002005F0C9FDF148C07A0028A6
:107FB0003AD1F048007850B1EF4AF0A101A8FCF79F
:107FC00095F9EF494868694609F0B6FCBCE0ED4810
:107FD0004268016801A804F02DF8EB4840780128B8
:107FE00007D0E9484078042803D0E74840780528BE
:107FF00004D1E6A101A8FCF7A4FBA5E0E248407883
:10800000032804D1E2A101A8FCF79BFB9CE0DE4819
:108010004078022803D0DC4840780628D6D1DDA17C
:1080200001A8FCF78EFB8FE0D148C07A032854DB0F
:10803000CF48C07A082850DCCD48807848BBCD486E
:10804000007848B1CC4ACDA101A8FCF74FF9D2A1E4
:108050006846FCF795FC77E0C549C97AC44A515C8B
:10806000CE4A32F9110011F073FD8146CC4911F06E
:1080700071FC064611F0D4FB07463A460B46C9A1EF
:1080800001A8FCF733F9C4A101A8FCF75AFB5BE097
:10809000D2E0FFE7B748007878B1B74AB7A101A8A6
:1080A000FCF724F9B249C97AC91EC04A02EBC101E2
:1080B0004868694609F040FC46E0AD48C07AC01EF9
:1080C000BA4B03EBC0004268A948C07AC01E53F8FF
:1080D000301001A803F0AEFF36E0A548C07A0928A9
:1080E00019D1A448007850B1A34AA4A101A8FCF773
:1080F000FDF8AF494868694609F01EFC24E0AC4829
:108100004268016801A803F095FF9F48817801A8A3
:1081100003F0ACFF18E09748007850B1964A97A159
:1081200001A8FCF7E3F8A3494868694609F004FC94
:108130000AE0A0484268016801A803F07BFF92486A
:10814000817801A803F092FF8A480078A8B1884A94
:10815000D27A994B03EBC202D188854AD27A03EBDB
:10816000C2029288483290B218236A4605F036F966
:1081700000214FF6FF7005F0E1FC7D4AD27A8E4B6C
:1081800003EBC202D1887A4AD27A03EBC20290880A
:10819000182301AA05F082FC00214FF6FF7005F0BC
:1081A000CDFC7348007B042824D1714AD27A824BDB
:1081B00003EBC202D1886E4AD27A03EBC2029288E4
:1081C000483290B218230DF10A0205F007F9684A07
:1081D000D27A794B03EBC202D188654AD27A03EB9B
:1081E000C2029288543290B218230DF10B0205F0AE
:1081F000F5F820E05E48017B01A808F097FC01A992
:1082000046185B48017B01A808F090FC5849C97AE0
:10821000694A02EBC10189880C2212FB001087B267
:108220005348C07A644A02EBC000C1881823324622
:10823000384605F0D3F8ADE6002412E101ADA4BB49
:108240004B48005D20B95DA101A8FCF74FF8EBE0B9
:108250004C484268016801A803F0ECFE4A484078A7
:10826000012807D048484078042803D04648407881
:10827000052804D145A101A8FCF763FAD4E04248DF
:108280004078032804D142A101A8FCF75AFACBE0B8
:108290003D484078022803D03B4840780628D6D194
:1082A0003CA101A8FCF74DFABEE0FFE7012C0CD180
:1082B0004548007800EB8000444901EB40002C4920
:1082C000497801EB81014518AEE0022C0CD13E4803
:1082D0000078C0EBC0003E4901EB4000244989789A
:1082E000C1EBC10145189FE0032C32DB082C30DCC8
:1082F0001F48005D20B937A101A8FBF7F7FF93E005
:108300001B488078C8B91A49095D244A32F911001E
:1083100011F01EFC8146224911F01CFB064611F0AB
:108320007FFA07463A460B461EA101A8FBF7DEFF7F
:1083300019A101A8FCF705FA76E0E01E1B4B03EB40
:10834000C0004268E01E53F8301001A803F072FE2E
:108350006AE0092C54D10648407A20B91FA101A82F
:10836000FBF7C4FF60E03FE016010020150100208C
:108370003B140020261200201F1200202536730017
:10838000281200204012002004000020A6B800009F
:108390004800000046000000250000007201002097
:1083A0000000C842252B30362E326600A014002073
:1083B0003012002038120020A41800202D2D2D2D61
:1083C0002D2D2D2D0000000032140020D6A2010812
:1083D000EAA201082D2D2D2D2D2D2D002D2D2D2D19
:1083E0002D2D2D2D2D00000020484268016801A888
:1083F00003F020FE1E48817801A803F037FE13E049
:108400001C48807A28B9AFF22C0101A8FBF76EFF57
:108410000AE019484268016801A803F00BFE1448FD
:10842000817801A803F022FE1248C07AA04205D14B
:1084300000214FF6FF7005F081FB04E04FF6FF715D
:10844000002005F07BFB0D4A02EBC402D1880B4AE9
:1084500002EBC402908818232A4605F01FFB601C1B
:10846000C4B20B2CFFF6EAAE00BF93E53012002039
:10847000040000203B14002038120020A418002023
:108480002DE9F041054601278A480078012801D1ED
:10849000BDE8F08188480078002860D18748C07A1C
:1084A00040B900208549C97A844A505484490860FB
:1084B0004860EDE78148C07A03282ADB7F48C07A0C
:1084C000082826DC7D488078E8B97C48C07A7B495A
:1084D000085C08280DDD0846C07A085C794931F946
:1084E00010202946002008F0DBFA7449C97A734A43
:1084F00050547249C97A714A88182B4600220721C4
:1085000007F0ACF804E000206C49C97A6B4A50547B
:10851000BEE76A48C07A01280ED16848407808B999
:10852000012000E00020654948700846407866490F
:10853000487104F065FABAE06048C07A022808D1B0
:108540005E48807808B9012000E000205B4988700F
:10855000ADE000205949C97A584A5054A7E05B4819
:10856000007878B35548C07A20B92946584803F0B6
:108570009BFE26E05148C07A092804D12946554877
:1085800003F092FE1DE04D48C07A0A2804D1294626
:10859000514803F089FE14E04848C07A032810DBF4
:1085A0004648C07A08280CDC4448807848B14349E2
:1085B000C97AC91E494A02EBC101081D294603F0C8
:1085C00073FE65E7FFE73D48C07A40B93B4B0C338B
:1085D0002A463B49091D081F03F07AFE67E0374829
:1085E000C07A032853DB3548C07A08284FDC33486B
:1085F0008078C8BB3148C07A3049085C314931F9CC
:1086000010404FF0000806E007EB8700470008F134
:10861000010000F0FF082948C07A3149085C20B108
:108620002648C07A085C401E03E02448C07A2C49E2
:10863000085C2249097B401A4045E5DC2DB9E41B62
:108640002848844207DA044605E03C4442F20F70B1
:10865000844200DD044620B21849C97A174A515CA9
:10866000184A22F8110022E0FFE7144AD27AD21EFB
:108670001A4B03EBC202111D104AD27AD21E03EB31
:10868000C2000E4B0C332A4603F022FE0FE00B48CB
:10869000C07A092802D10F4E361F01E00E4E361F58
:1086A000064B0C332A46311D304603F011FE00BF45
:1086B000EEE6000016010020150100203B1400200A
:1086C00040120020720100202414002026120020F5
:1086D0002C120020341200203C120020A014002094
:1086E000B4A00108F1D8FFFF30B505461A4800785C
:1086F00030B92B4600220A21184806F0AFFF29E0C6
:108700001748007800B130BD14480B38C07A08B95A
:10871000042418E011480B38C07A03280CDB0F48FA
:108720000B38C07A082807DC0C480B38807808B969
:10873000032408E0042406E00A488078032801D1D5
:10874000032400E004242B46002221460348401C59
:1087500006F084FF00BFD6E7150100204614002074
:10876000261200200400002030B50346054C21707D
:10877000002004E01C5C044D2C54441CE0B28842F0
:10878000F8DB30BD30000020DB1200202DE9FC4179
:1087900004460D4620460BF04BFF064610F032FA19
:1087A00000902046FBF759FF00F0FF08A8F10100F8
:1087B000205C6E2814D006DC4D281CD06B2817D006
:1087C0006D281BD104E070280ED0752816D103E067
:1087D0006FF00200019014E06FF00500019010E0CE
:1087E0006FF0080001900CE06FF00B00019008E0C2
:1087F0000320019005E00620019002E00020019096
:1088000000BF00BF104A93780022DDE9000103F0A9
:108810004FFC10B10020BDE8FC810199C8B20FF0F7
:10882000C9FF0746009911F0F3F90646064881781A
:1088300001AB6A46304604F0EFF8DDE90001C5E916
:1088400000010120E7E70000040000202DE9F041CD
:108850008CB00446884616461F46002008900990B2
:108860000A900B900490059006900790009001905C
:1088700002900390414608A8FEF74AFE394604A834
:10888000FEF798FF032C01D0042C1CD1314668461A
:10889000FEF748FC4FF6E071002005F04FF9182371
:1088A0006A46C821482005F0F9F8182308AAE821EB
:1088B000482005F0F3F8182304AA4FF484714820E7
:1088C00005F0ECF82BE0022C29D14FF6E0710020E6
:1088D00005F034F91348007818B1124800780328DD
:1088E00001D10D250AE00F480078012803D00D487A
:1088F0000078042801D10F2500E01425AA1B0AA145
:108900006846FBF7F3FC502308AA9C21A02005F041
:10891000C5F824236A46C821480005F0BFF80CB00A
:10892000BDE8F081B800002025326420200000005E
:1089300010B523480078052840D14FF6E07100209B
:1089400005F0FCF81E484079B8B932231DA29821E1
:10895000052005F0A3F850231CA27C21692005F016
:108960009DF840F2FF71002005F0E8F8482319A2B5
:10897000D6218C2005F092F820E04FF478410020B9
:1089800005F0DCF8502315A278216E2005F086F85A
:108990004FF6E071002005F0D1F824230BA2C82186
:1089A000822005F07BF840F2FF71002005F0C6F848
:1089B000242308A2F021822005F070F810BD0000E9
:1089C000241400204443523A000000002D2D2D2D88
:1089D0002D2D2D002D2D2D2D2D2D000042494E3AEF
:1089E0004F5554002DE9F0472848006800F1100564
:1089F0002E8826480068077AD6B9042F18D1244853
:108A0000007801280FD100212248006880B2801C24
:108A1000214A42F8101030202049088000BF002071
:108A20001B49087003E0072710201C49088027E035
:108A3000AC88A64201D8042000E002200746B442D8
:108A400000D93446A0B2A9688847804600200AF0C1
:108A500007FD8146A2B2494640460AF055FBA1B245
:108A600000200AF0FDFF2888001B28806888204429
:108A7000688030200949088000020949088000BF49
:108A8000024909680F72BDE8F0870000C00B0020A2
:108A9000BA0B0020505C004000600040D20B002068
:108AA000D00B00202DE9F0412848006800F11004A7
:108AB0002688A068C0B1BEB1A588B54200D93546A8
:108AC000A8B2A168884707462088401B208060889C
:108AD0002844608000200AF0A1FC8046AAB24146EA
:108AE00038460AF0F9FA00BF208850B14FF44050E0
:108AF00017490880002108460AF0B2FF30201549C6
:108B000008802088A188884204DB03200F49096877
:108B1000087218E02088002804DD05200B49096848
:108B2000087210E0208870B90620084909680872A8
:108B300000210948006880B2801C084A42F81010E1
:108B4000302004490880BDE8F0810000C00B0020FF
:108B5000D00B0020D20B0020505C00400060004091
:108B600007B592B0FA480078002877D1F8484078E5
:108B7000072874D2DFE800F0A404073454A174007D
:108B8000139810909DE0F348C078F34951F8200005
:108B9000079010F0FFFACDE90A0114984FF08041D8
:108BA000049011F035F8059010F03AFEEB4AEC4BCA
:108BB000CDE9060110F03EFBCDE90801DDE90A230D
:108BC00010F038FB02460B46CDE90C010020E549C8
:108BD00010F006F9CDE90E0110F014F8109070E0D5
:108BE000DC48C078DC4951F82000079010F0D2FA38
:108BF000DA4ADD4BCDE9080110F01CFBCDE90C0190
:108C00001498099010F00CFECDE90A01DDE90C235F
:108C100010F0E6F8CDE90E010FF0F4FF109050E0EF
:108C2000139808900146079010F0F2FF0A901498EC
:108C300008900146079010F0EBFF09900A9910F098
:108C40001BFE0B9010F0ECFDCDE90C010FF038FF8E
:108C5000CDE90E010FF0D6FF109032E032E02FE0A8
:108C6000BC48C078BC4951F82000079010F092FA37
:108C7000CDE90A0114984FF08041049010F0C8FF2C
:108C8000059010F0CDFDB54AB54BCDE9060110F0C9
:108C9000D1FACDE90801DDE90A2310F0CBFA02464A
:108CA0000B46CDE90C010020AE4910F099F8CDE952
:108CB0000E010FF0A7FF109003E01398109000E052
:108CC00000BF39E1A248407807287CD2DFE800F0F5
:108CD0007B042B7CBFFEDD0014980A90139809904A
:108CE0000A9910F037FE0C9014980A901398099086
:108CF0000A9910F02FFE0B900C9910F089FF014695
:108D00000D904FF07E5010F025FE4FF07E510E90EA
:108D100010F0B2FD0F90139801460E900F9810F0CE
:108D200077FF109007E11498059013980490059927
:108D300010F010FE07901498059013980490059970
:108D400010F008FE0690079910F062FF4FF07E5178
:108D5000089010F091FD099010F062FDCDE90C0132
:108D60007C48C0787C4951F82000039010F012FA3A
:108D7000CDE9060114984FF08041009010F048FFB3
:108D8000019010F04DFD754A754BCDE9020110F0D0
:108D900051FACDE90401DDE9062310F04BFA024651
:108DA0000B46CDE9080100206E4910F019F8CDE915
:108DB0000A01DDE90C2310F013F8CDE90E010FF0E4
:108DC00021FF1090B7E0B5E0149805901398049037
:108DD000059910F0BFFD0790149805901398049022
:108DE000059910F0B7FD0690079910F011FF4FF0AC
:108DF0007E51089010F040FD099010F011FDCDE972
:108E00000C015448C078544951F82000039010F0E8
:108E1000C1F9524A544BCDE9040110F00BFACDE9E7
:108E200008011498059010F0FBFCCDE90601DDE97E
:108E300008230FF0D5FFCDE90A01DDE90C2310F07E
:108E4000F9F9CDE90E010FF0DDFE109073E01398F3
:108E500008900146079010F0DBFE0A9014980890E5
:108E60000146079010F0D4FE09900A9910F004FD15
:108E70000B9010F0D5FCCDE90C010FF021FECDE9EF
:108E80000E010FF0BFFE109055E014980590139856
:108E90000490059910F05EFD0790149805901398C2
:108EA0000490059910F056FD0690079910F0B0FE59
:108EB0004FF07E51089010F0DFFC099010F0B0FCEC
:108EC000CDE90C012348C078234900E02FE051F898
:108ED0002000039010F05EF9CDE9060114984FF0E0
:108EE0008041009010F094FE019010F099FC1B4A14
:108EF0001B4BCDE9020110F09DF9CDE90401DDE93C
:108F0000062310F097F902460B46CDE90801002030
:108F100014490FF065FFCDE90A01DDE90C230FF0DC
:108F20005FFFCDE90E010FF06DFE109003E0139886
:108F3000109000E000BF00BF0548807805286BD284
:108F4000DFE800F00314263867001498119064E0FD
:108F500004000020241400202C0100204AD8124DC7
:108F6000FB2109400000F0BFFB21194014980C9030
:108F700013980B900C9910F0EDFC0D9010F050FC34
:108F800021F00041CDE90E010FF03CFE119044E0CC
:108F900013980C9014980B900C9910F0DBFC0D902A
:108FA00010F03EFC21F00041CDE90E010FF02AFE49
:108FB000119032E01498059010F032FCCDE90801D0
:108FC0001398059010F02CFCCDE90601DDE90801AD
:108FD000CDE90201DDE9060100221346CDE90001D9
:108FE00010461E49FDF71EFB80F000401C490A9008
:108FF00010F00EFE0B9010F013FC1A4A1A4BCDE93C
:109000000C010FF0EDFECDE90E010FF0FBFD11900C
:1090100003E01398119000E000BF00BF13484078B0
:10902000012803D011484078052810D11098104924
:109030000F9010F0B9FD02D20E48109007E0109882
:1090400000210F9010F0B0FD01D200201090DDE95A
:109050001012129806C015B000BD00000000F03FCD
:10906000000034434AD8124DFB210940040000207F
:10907000000080BFA95F63D82DE9F84F9B480068C6
:1090800045780027BA46062D1BD19848006800781D
:1090900000F07F00002813D19449096888780128DE
:1090A00003D193490968CF690AE0022803D19049A6
:1090B00009680F6A04E0032802D18D4909684F6AE4
:1090C00094E0002D64D189480068408800285FD171
:1090D00086480068C08802285AD184480068007910
:1090E000002855D181480068007800F07F0028B939
:1090F0007E480068808808B97E4F77E07B4800682A
:10910000007800F07F00012810D17849096848797B
:10911000774909688A6900219047002866D1734819
:109120000068807A002861D0724F5FE06F48006865
:10913000007800F07F00022858D16C480068407920
:1091400000F00F0669480068407900F07009674830
:109150000068407900F0800038B1674901EB860073
:10916000D0F8000C00F0300806E0634901EB8600FF
:10917000D0F8000C00F4405860480078B04235D96F
:10918000B9F1000F32D1B8F1000F2FD0594F2DE0B7
:10919000082D07D155480068007800F07F0028BBF3
:1091A000574F23E00A2D21D150480068007800F085
:1091B0007F0001281AD14D480068807AB0B14B4831
:1091C0000068408890B949480068007970B94748FC
:1091D0000068C088012809D1444909684879444990
:1091E00009688A690021904700B9464F57B13F4846
:1091F0000068A0F812A03D48006887610020B847C9
:1092000000240FE0394A12685078394A126811690F
:1092100088470446032C05D109203449096808729F
:10922000BDE8F88F31480068008A4FF6FF71884228
:1092300004D109202D4909680872F1E7022C03D0F6
:109240002A480068008A20B908202849096808725D
:10925000E6E726480068007800F08000E0B3234885
:109260000068C088009021480068008A0099884200
:1092700004D91E4900980968088223E01B48006849
:10928000008A1A490968C98888421BDA17480068A9
:10929000008A1749096891F82C10884203DA0020E7
:1092A000194908700EE011480068008A10490968E1
:1092B00091F82C1090FBF1F201FB120010B9012083
:1092C000114908700A48006890F82C100748006897
:1092D0008182FFF787FB07E0FFE703200349096866
:1092E000087200030949088000BF99E7C00B0020FD
:1092F000C40B0020E915010800500040540C002068
:109300006D150108BD150108BA0B0020D00B002017
:109310001FB5104B0FCB8DE80F0005208DF8000016
:1093200001208DF8070006208DF8010010208DF82F
:1093300003000E2269460848FBF796FA002106480A
:109340003038016440F2DC51A0F844100021C1879C
:109350001FBD0000A40100200C1400207047000075
:109360002DE9F04105460C460026284610F058FA33
:1093700021F0004107460022114B0FF01FFF01D2E0
:1093800066421AE0284610F04BFA21F000410746E9
:1093900000220C4B0FF012FF02D2C4F101060CE0C8
:1093A000284610F03DFA21F0004107460022064B06
:1093B0000FF004FF01D2C4F102063046BDE8F0818F
:1093C000000024400000594000408F400EB50022AC
:1093D00040F22551224809F0FFFC002240F22551BD
:1093E000204809F0F9FC002201211F4808F04BFD3C
:1093F0004FF4802001F05AFF4FF4802000900820A5
:109400008DF8050000208DF80600684601F054FF35
:109410004FF40040009000208DF8040008208DF8E3
:10942000050000208DF80600684601F045FF142075
:109430008DF8080002208DF8090000208DF80A0040
:109440008DF80B0002A806F0DBFD2A208DF808003D
:1094500000208DF8090002A806F0D2FD0EBD000024
:1094600000380140004C0040000800407CB5044634
:109470000D466078012806DC17480078012802D0E4
:109480001648007858B1362201216846FBF71EFACB
:10949000012211460DF10100FBF718FA0FE0607888
:1094A0000F49487160780F4948703622012168469B
:1094B000FBF70CFA00208DF8010006F033FF2DB900
:1094C000022269460848FDF7D5FD03E002216846FF
:1094D000FDF704FE7CBD0000150100202D000020DA
:1094E000241400203B140020004C00407CB50446AE
:1094F0000D466078012809DC1E480078012805D057
:109500001D48007810B91D48007858B13C2201214F
:109510006846FBF7DBF9012211460DF10100FBF76C
:10952000D5F91BE06078164908703C220121684695
:10953000FBF7CCF900208DF801004FF6E07104F044
:10954000FDFA0F48007830B918230EA2082148010F
:1095500004F0A4FA02E000200C4908702DB90222A0
:1095600069460B48FDF786FD03E002216846FDF7DA
:10957000B5FD7CBD150100202D0000201401002048
:109580008814002020202020000000006912002004
:10959000004C004010B5312006F010F91E4800784C
:1095A000002838D11D480078002834D11C480078A4
:1095B000042812DC1B480068807A1949097888421F
:1095C00003DC00201649087004E015480078401CB0
:1095D0001349087006F074FA19E01148007805285C
:1095E0000AD106F059F8002006F094F800200C4942
:1095F000087306F097FE0AE0062006F04DF80020FA
:1096000006F088F800200649087306F08BFE00205B
:1096100005494870087010BD140100201501002094
:1096200024140020DC0000208814002010B52E2017
:1096300006F0C4F80D480078052806D00B480078DD
:1096400018B10B480078012800D110BD09480078F6
:1096500048B90648407A08B9012000E000200349D3
:10966000487206F02DFA00BFEFE700002414002036
:10967000150100201401002010B50C48007898B99D
:109680000B48007880B90B484078032807D00320A6
:10969000084948700849086806F0A6FC02E0002066
:1096A00004494870FDF750FB10BD00001401002074
:1096B00015010020881400201000002010B52D2076
:1096C00006F07CF82848007800284CD1274800781C
:1096D000002848D126480079D8B94FF6E07100201B
:1096E00004F02CFA02F028F8242322A2A0218C20D6
:1096F00004F0D4F900202249088000BF20480088E7
:109700006428FBDD24231FA2A0218C2004F0C6F9CD
:1097100029E0502005F0E8FD02201D4908704FF6B1
:10972000E071002004F00AFA02F006F81948007807
:1097300030B9242318A2C8210A2004F0AFF905E0AB
:10974000242317A2C8210A2004F0A8F908480078A9
:10975000154908700846007805F09EFFFDF7F4FAF9
:10976000092005F0C1FD10BD1401002015010020E5
:109770002414002052616E6765204C4F434B21003A
:1097800076120020202020202020202020202000D1
:109790002D00002032140020D0A3D7BC3A000000D6
:1097A00043414C3A00000000C601002010B53220B1
:1097B00006F004F81F480078E8B91F480078D0B9CF
:1097C0000D221E491E48FAF7C8FF00201B49C87227
:1097D0000C221C491C48FBF7A8F81C4A51781C4A6B
:1097E0001C4B10681A1F03F051F802201149087031
:1097F00006F098FD1DE00F480078022819D10E48A8
:109800000078B0B90D220D490D48FAF7A6FF0C22D9
:109810000C490D48FBF789F8084840780E49487113
:1098200000200E4908700E4908700249087006F0C1
:1098300079FD10BD14010020150100203B1400200B
:109840006E140020800100207C1400200400002001
:10985000100000202C1200202414002017010020EA
:109860001601002010B5372005F0A8FF1948007830
:1098700000282ED11848007858BB184800780628D0
:1098800008D105F009FF052005F044FF0420134925
:10989000087316E011480078052809D0002005F06B
:1098A000FBFE052005F036FF04200C49087308E094
:1098B000052005F0F1FE002005F02CFF01200749EE
:1098C000087306F02FFDFFF733F8002004494870B5
:1098D000087010BD14010020150100202414002080
:1098E0008814002010B51848007830B1012814D031
:1098F000022818D0042824D11BE0002006F04AFAE0
:1099000000B110BD06F0DCF81049097B104A52F88E
:109910002110487A05F0E8FC13E0002007F02CFB4A
:1099200007F0C6F90DE00020FEF7AAFDFEF728FBC0
:1099300007E0002004F098FF00B1E2E704F03CFCEF
:1099400000BF00BF00BFDCE714010020241400208A
:10995000DC00002010B5302005F030FF1B480078F7
:10996000002831D11A48007800282DD119480078F4
:1099700005280AD105F090FE062005F0CBFE062052
:10998000144908700320087318E01248007806286C
:109990000BD0002005F080FE062005F0BBFE06205F
:1099A0000C4908700320087308E0062005F074FED7
:1099B000002005F0AFFE01200649087306F0B2FC56
:1099C000002005494870087010BD000014010020F7
:1099D0001501002024140020881400202DE9FF5FC9
:1099E0004FF00008F9480078002871D1F848007B52
:1099F000012807D0F648007B022803D0F448007BFA
:109A000003287CD1F3480078032849DBF048007B29
:109A1000012813D1EE48007804280FDCEC48407888
:109A2000ED4931F810008881E948407831F810009C
:109A3000EA4908600620E64948704BE0E448007BAC
:109A4000022813D1E248007804280FDCE04880782F
:109A5000E34931F810000880DD48807831F81000C3
:109A6000DE4908600020DA49887033E0D848007B7E
:109A7000032813D1D648007805280FD0D448C078E1
:109A8000D84951F820000864D148C07851F8200026
:109A9000D24908601020CE49C8701BE0BDE8FF9F86
:109AA000CB48007B022814D1C9480078042810DC78
:109AB000C7488078CA4931F810000880C4488078C7
:109AC00031F81000C54908600020C149887001E0E4
:109AD0003BE0E3E7C448007808B9012000E000203B
