:020000040800F2
:10000000781A002039020008590C0008D30B0008A8
:10001000550C0008F3040008F1140008000000006B
:10002000000000000000000000000000E50F0008D4
:10003000F7040008000000004F020008C11000088B
:10004000530200085302000853020008530200083C
:10005000530200085302000853020008530200082C
:10006000530200085302000853020008530200081C
:10007000530200085302000853020008530200080C
:1000800053020008530200085302000853020008FC
:1000900053020008530200085302000853020008EC
:1000A00053020008530200085302000853020008DC
:1000B00053020008530200085302000853020008CC
:1000C00053020008530200085302000853020008BC
:1000D00053020008530200085302000853020008AC
:1000E000530200085302000853020008530200089C
:1000F000530200085302000853020008530200088C
:10010000530200085302000853020008530200087B
:100110007911000853020008530200085302000836
:10012000530200085302000853020008530200085B
:10013000530200085302000853020008530200084B
:10014000530200085302000853020008530200083B
:10015000530200085302000853020008530200082B
:10016000530200085302000853020008530200081B
:10017000530200085302000853020008530200080B
:1001800053020008530200085302000853020008FB
:10019000530200085302000800F002F800F03AF899
:1001A0000AA090E8000C82448344AAF10107DA45D2
:1001B00001D100F02FF8AFF2090EBAE80F0013F0EA
:1001C000010F18BFFB1A43F001031847E8150000A0
:1001D00008160000103A24BF78C878C1FAD8520730
:1001E00024BF30C830C144BF04680C6070470000B1
:1001F0000023002400250026103A28BF78C1FBD830
:10020000520728BF30C148BF0B6070471FB51FBDE4
:1002100010B510BD00F069F81146FFF7F7FF01F0C7
:1002200069F900F087F803B4FFF7F2FF03BC00F0B0
:100230008FF8000040BA70470948804709480047D6
:10024000FEE7FEE7FEE7FEE7FEE7FEE7FEE7FEE786
:10025000FEE7FEE704480549054A064B70470000E3
:10026000D91000089901000878020020781A0020AF
:10027000780500207805002040EA010310B59B07AF
:100280000FD1042A0DD310C808C9121F9C42F8D000
:1002900020BA19BA884201D9012010BD4FF0FF30B1
:1002A00010BD1AB1D30703D0521C07E0002010BDC7
:1002B00010F8013B11F8014B1B1B07D110F8013B53
:1002C00011F8014B1B1B01D1921EF1D1184610BD34
:1002D000CBB22AB101788B4203D0401C521EF9D117
:1002E00000207047704770477047754600F02CF843
:1002F000AE4605006946534620F00700854618B013
:1003000020B5FFF7A7FFBDE820404FF000064FF0F3
:1003100000074FF000084FF0000B21F00701AC463A
:10032000ACE8C009ACE8C009ACE8C009ACE8C00959
:100330008D46704710B50446AFF300802046BDE8F7
:100340001040FFF770BF00000048704718020020FF
:1003500001491820ABBEFEE72600020070470000EE
:100360002DE9F04106460F46144619498E420AD33C
:100370003119184A914206D2204604EBD071491037
:10038000A4EB410119B16FF00200BDE8F081002536
:100390000CE057F8251006EB850000F089F90628D7
:1003A00002D06FF00100F0E7681C85B2E11704EBA2
:1003B0009171B5EBA10FECDB224631463846FFF7D1
:1003C0005BFF10B14FF0FF30DFE70020DDE70000FA
:1003D000004000080000040870B5002616A001F0D7
:1003E00065F900F093F900F095F806281DD1174D36
:1003F00000240EE0284600F0F1F8062802D04FF065
:10040000FF3608E005F5006511A001F04FF9601C0A
:1004100004B2782CEED300BF1EB90EA001F046F94D
:1004200008E010A001F042F904E015A001F03EF947
:100430004FF0FF36304670BD0D0AC9BEB3FD466CA5
:100440006173682E2E2E0D0A000000000040000887
:100450003E0000000D0AC9BEB3FDCDEAB3C9210DAF
:100460000A0000000D0A2A2A2A20C9BEB3FD466CE4
:10047000617368C9C8C7F8B4EDCEF3210D0A000056
:100480000D0A2A2A2A20C9BEB3FD466C617368D1C1
:10049000A1CFEEC7F8B4EDCEF3210D0A00000000A5
:1004A00070B5034600241EE011F8010B392803DD66
:1004B000A0F13705E8B202E0A0F13005E8B2050787
:1004C0002D0E1D7011F8010B392803DDA0F1370541
:1004D000E8B202E0A0F13005E8B21D78054403F867
:1004E000015B651CECB202EBD276B4EB660FDBDB92
:1004F00070BD00BFFEE7704700BF011EA0F1010004
:10050000FBD170470249C9680143014AD160704775
:100510000020024030B52C4D062400F089F810B1BF
:100520000824204630BD00F08FF808B14FF47F0555
:100530007C20FFF7E7FF4FF4302000F0F3F804468B
:10054000062C3ED12148224988602248886008460E
:10055000006940F0200008610846006940F0400052
:1005600008614FF4302000F0DDF80446062C1FD15E
:100570007C20FFF7C7FF1648006943F6DF7108408B
:10058000134908610846006940F0100008611248EC
:1005900005604FF4005000F0C5F804460A2C10D056
:1005A0000B48006943F6EF7108400949086108E00B
:1005B0000A2C06D00648006943F6DF71084004495A
:1005C00008612046AEE70000A500FFFF2301674554
:1005D00000200240AB89EFCD00F8FF1F30B5044684
:1005E00006257C20FFF78EFF4FF4302000F09AF8AC
:1005F0000546062D17D10D48006940F002000B4951
:10060000086108464461006940F0400008614FF409
:10061000302000F087F805460448006943F6FD7174
:10062000084002490861284630BD00000020024011
:1006300000200449C96901F0004109B1012000E02E
:10064000002070470020024000200449C96901F0E1
:10065000020109B1012000E00020704700200240A3
:1006600006201249C96801F0010109B101201CE00E
:100670000E49C96801F0040109B1032015E00B49D6
:10068000C96801F0080109B104200EE00749C968F2
:1006900001F0100109B1052007E00449C96801F023
:1006A000400109B1072000E0062070470020024009
:1006B00078B504460D4606260020009004F003009D
:1006C00010B10926304678BD7C20FFF71BFF4FF4A0
:1006D000005000F027F80646062E12D10A4800699D
:1006E00040F001000849086125604FF4005000F017
:1006F00019F806460448006943F6FE7108400249AD
:1007000008613046DFE7000000200240024803494C
:100710004860034848607047230167450020024055
:10072000AB89EFCD00B502460623FFF799FF0346DC
:1007300003E0FFF795FF0346521E012B01D1002A6B
:10074000F7D102B90A23184600BD000028B10549B7
:1007500009780144034A117003E003490978014A0A
:10076000117070470300002004000020F0B50C4613
:100770000023002600220025002100F00047B7F1E9
:10078000004F02D18B4FFA6919E000F08047B7F1B2
:10079000804F02D1874F3A6A11E000F00057B7F15D
:1007A000005F02D1834F7A6A09E000F08057B7F109
:1007B000805F02D17F4FBA6A01E07E4F7A68C0F352
:1007C000034583B27C4F0740B7F5401F0AD122F0A2
:1007D0007062784F7F6827F07067DFF8D8C1CCF877
:1007E0000470BDE000F48017B7F5801F13D100F44A
:1007F0000017B7F5001F03D10327AF403E0402E006
:10080000032707FA05F6B24300F0E047002FE8D1CE
:1008100042F07062A4E000F08077B7F1807F47D1AA
:1008200000F00407042F29D100F00077B7F1007F12
:1008300016D1C0F340573F0103FA07F7BA433CB162
:100840005C4F796841F0010141F07061796087E0A7
:10085000584F796821F0010141F0706179607FE0C3
:10086000C0F340573F0103FA07F7BA43514F796885
:1008700021F0010141F07061796071E043F00407FB
:10088000C0F3405C4FEA0C1C07FA0CF7BA433CB1CA
:10089000484F796841F0010141F0706179605FE093
:1008A000444F796821F0010141F07061796057E0AF
:1008B00000F08067B7F1806F47D100F00807082F7C
:1008C00029D100F00077B7F1007F16D1C0F340576F
:1008D0003F0103FA07F7BA433CB1364F796841F05C
:1008E000080141F0706179603AE0324F796821F097
:1008F000080141F07061796032E0C0F340573F0178
:1009000003FA07F7BA432B4F796821F0080141F049
:100910007061796024E043F00807C0F3405C4FEA5F
:100920000C1C07FA0CF7BA433CB1224F796841F02E
:10093000080141F07061796012E01E4F796821F082
:10094000080141F0706179600AE0C0F340573F014F
:1009500003FA07F7BA4300F0E0470FB942F07062BC
:100960002CB1C0F340573F0103FA07F73A4300F0B8
:100970000047B7F1004F02D10E4FFA6119E000F0C5
:100980008047B7F1804F02D10A4F3A6211E000F080
:100990000057B7F1005F02D1064F7A6209E000F01C
:1009A0008057B7F1805F02D1024FBA6201E0014F78
:1009B0007A60F0BD00000140000030702DE9F04188
:1009C000024600250026002000230024002791F87D
:1009D00003C00CF00F0591F803C00CF0100CBCF133
:1009E000000F03D091F802C04CEA050591F800C051
:1009F000BCF1000F31D0146800202BE04FF0010C47
:100A00000CFA00F3B1F800C00CEA03069E4220D1B4
:100A100083004FF00F0C0CFA03F7BC4305FA03FCFC
:100A20004CEA040491F803C0BCF1280F06D14FF042
:100A3000010C0CFA00FCC2F814C00AE091F803C0E3
:100A4000BCF1480F05D14FF0010C0CFA00FCC2F8C4
:100A500010C0401C0828D1D31460B1F800C0BCF10C
:100A6000FF0F34DD546800202EE000F1080C4FF039
:100A7000010808FA0CF3B1F800C00CEA03069E4224
:100A800021D183004FF00F0C0CFA03F7BC4305FA99
:100A900003FC4CEA040491F803C0BCF1280F05D113
:100AA00000F1080C08FA0CF8C2F8148091F803C0A1
:100AB000BCF1480F07D100F1080C4FF0010808FA0B
:100AC0000CF8C2F81080401C0828CED35460BDE852
:100AD000F08130B502460023002405E012F8015BE6
:100AE000E818C3B2601CC4B28C42F7DB5842C0B2F3
:100AF00030BDFEB507460C46154600208DF80400B3
:100B0000ADF80500FF208DF80700002002902A466E
:100B10003A212046FFF7DCFB0646002E51D0301B61
:100B2000C0B200909DF8000018B19DF80000FFF7DA
:100B30000DFE34469DF80000281AC5B20B2D43DB8C
:100B4000284605EBD0714910A5EB4101A1B3022263
:100B5000611C6846FFF7A4FC9DF800000B2101EB27
:100B60004000A84230DC9DF800100B2202EB41014E
:100B7000C8B2FFF7EBFD9DF800000A2101EB400031
:100B8000C2B2611C2046FFF78BFC9DF80000401D9F
:100B9000C1B22046FFF79DFF78B920788DF8040098
:100BA000B4F80100FFF746FB80B2ADF80500E0782D
:100BB0008DF80700201D029006E0FE208DF807004A
:100BC00002E02846FFF7C2FD01983860029878607D
:100BD000FEBD00BFFEE7000008B50121084600F099
:100BE00095F801210D2000F091F848208DF80300C0
:100BF00002208DF802001020ADF80000694612486E
:100C0000FFF7DCFE4FF42040ADF8000069460F48C6
:100C1000FFF7D4FE28208DF803004FF48040ADF894
:100C2000000069460948FFF7C9FE14208DF803004B
:100C30000820ADF8000069460348FFF7BFFE012118
:100C40000348FFF793FD08BD000C01400008014078
:100C50000002300000BFFEE77047000070B50021C1
:100C600000230F22C47804B3154C246804F4E06414
:100C7000C4F5E064210AC1F10403CA40447804FACF
:100C800003F184781440214309010E4C0678A155E4
:100C9000047804F01F050124AC4005786D11AD0007
:100CA00005F1E025C5F8004109E0047804F01F05CE
:100CB0000124AC40044D0678761145F8264070BDFD
:100CC0000CED00E000E400E080E100E029B1064A1C
:100CD000D2690243044BDA6104E0034AD2698243D9
:100CE000014BDA61704700000010024029B1064A4A
:100CF00012690243044B1A6104E0034A12698243F9
:100D0000014B1A61704700000010024029B1064AE9
:100D100092690243044B9A6104E0034A9269824358
:100D2000014B9A61704700000010024029B1064A49
:100D3000D2680243044BDA6004E0034AD26882437B
:100D4000014BDA607047000000100240F0B500214E
:100D500000BF002200250024384E7668384F06EA8E
:100D60000702364E766806F4803502F000661EB93A
:100D7000022606EB924204E04FF4F876C6EB924668
:100D8000721C1DB92F4E02FB06F30BE02B4E76684A
:100D900006F400361EB12C4E02FB06F302E02B4E89
:100DA00002FB06F3254E766806F00C0121B10429FA
:100DB00005D0082908D105E0254E066007E0234E3E
:100DC000066004E0036002E0214E066000BF00BF41
:100DD0001A4E766806F0F00109091E4E745C06682A
:100DE000E6404660154E766806F4E061090A194E41
:100DF000745C4668E6408660104E766806F4605182
:100E0000C90A144E745C4668E640C6600B4EF66A2A
:100E100006F00F01104E745C4668B6FBF4F64661AE
:100E2000064EF66A06F4F871090901F00F060B4F39
:100E300037F81640B3FBF4F60661F0BD001002402F
:100E400000003C0800093D00808D5B00001BB700DE
:100E500000127A007417000884170008941700081D
:100E600070B50146084C2378084C2278002008E031
:100E70001446551CEAB2064D2E5D0446451CE8B2E8
:100E80000E559342F4D170BD0400002003000020F1
:100E90001800002070B5C4B034A000F007FC4FF07B
:100EA00000660020FFF752FC5CE002A8FFF7D8FFC5
:100EB0000546002D55D02A4602A96846FFF719FEBF
:100EC000DDE90001439142909DF80B01FF2800D11C
:100ED00048E09DF80B01FE2803D129A000F0E6FBB5
:100EE00041E09DF80B01012803D12AA000F0DEFBB0
:100EF00039E09DF80B01042809D143990888FFF7D0
:100F000099F90646360427A000F0D0FB29E09DF8A9
:100F10000B01052803D123A000F0C8FB21E09DF8B8
:100F20000B01F0B99DF80821BDF8093198194399D2
:100F3000FFF716FA04461CB91AA000F0B7FB10E040
:100F4000601C18B918A000F0B1FB0AE0A01C18B989
:100F50001AA000F0ABFB04E0E01C10B91CA000F0EC
:100F6000A5FB00BFA1E700BF44B070BD0D0AD7BC10
:100F7000B1B8BDD3CAD5CEC4BCFE2E2E2E0D0A00EC
:100F80000D0A2A2A2A20CEC4BCFEB4EDCEF3210DD0
:100F90000A0000000D0ACFC2D4D8B3C9B9A6210DEA
:100FA0000A0D0A002E0000000D0A2A2A2A20D0A3CA
:100FB000D1E9B4EDCEF3210D0A0000000D0A2A2A72
:100FC0002A20D0B4C8EBB4EDCEF3210D0A00000006
:100FD0000D0A2A2A2A20BFD5BCE4D2E7B3F6210D98
:100FE0000A0000007047000010B500200021002218
:100FF0002E4B1B6843F480332C4C236000BF2B4BDB
:101000001B68C3F34041521C11B9B2F5004FF6D131
:10101000264B1B68C3F3404119B9254B254C23606F
:1010200010BD254B1B6823F00303234C236023468C
:101030001B6843F0020323601C4B5B681B4C63601E
:1010400023465B68636023465B6843F480636360A8
:1010500023465B68194C2340144C63602346586850
:1010600040F4803040F4003040F4201058601B6899
:1010700043F08073236000BF0C4B1B6803F00073C8
:10108000002BF9D0094B5B6823F00303074C636026
:1010900023465B6843F00203636000BF034B5B6859
:1010A00003F00C03082BF9D100BFB9E70010024090
:1010B00000127A001400002000200240FFFFC0F759
:1010C0000448008820B103480088401E0149088078
:1010D000704700000000002010B52048006840F074
:1010E00001001E490860084640681D4908401B4928
:1010F0004860084600681B490840184908600846CF
:10110000006820F4802008600846406816490840BE
:10111000124948600020C86208634FF41F008860CD
:101120000846C06940F08050C8611048C06840F06F
:1011300001000E49C8600948C06920F08050074985
:10114000C8610B48006840F0900009490860FFF74B
:101150004BFF4FF000600749086010BD00100240CF
:1011600000C0FFF8FFFFF6FEFFFF00F70070004031
:101170000020024008ED00E010B540F22551114872
:1011800000F02DF9E0B104200F4908700D48001D52
:1011900000880E490870084601780D4802780078EA
:1011A000401C0B4B18700B488154184600780A49B4
:1011B0000978884204D108480078401C0649087024
:1011C00010BD0000004C004005000020020000207F
:1011D00004000020180000200300002010B586B095
:1011E000044601211120FFF791FD0121C804FFF7FA
:1011F0006DFD234800F06EF84FF48060ADF81400E8
:1012000018208DF8170003208DF8160005A91D4839
:10121000FFF7D4FB4FF40060ADF8140004208DF804
:10122000170005A91748FFF7C9FB01940020ADF886
:101230000800ADF80A00ADF80C00ADF810000C2065
:10124000ADF80E0001A90E4800F0F4F834208DF836
:10125000000001208DF801008DF802008DF80300D8
:101260006846FFF7FBFC012240F22551044800F0DC
:101270000BF80121024800F099F806B010BD0000FB
:10128000004C004000100140F0B503460024002649
:101290000025002040F66A17B94200D100BF184669
:1012A000C1F3421401F01F06012707FA06F5012CCD
:1012B00001D10C3004E0022C01D1103000E01430D8
:1012C0001AB107682F43076002E00768AF43076061
:1012D000F0BD000010B504462D48844209D101211B
:1012E0008803FFF723FD00214FF48040FFF71EFD28
:1012F0004CE02848844209D101214804FFF7F6FC5C
:1013000000214FF40030FFF7F1FC3FE02248844217
:1013100009D101218804FFF7E9FC00214FF4802066
:10132000FFF7E4FC32E01D48844209D10121C804E2
:10133000FFF7DCFC00214FF40020FFF7D7FC25E08D
:101340001748844209D101210805FFF7CFFC00218D
:101350004FF48010FFF7CAFC18E01248844209D10C
:1013600001214804FFF7E2FC00214FF40030FFF7B1
:10137000DDFC0BE00C48844208D101218804FFF712
:10138000D5FC00214FF48020FFF7D0FC10BD0000F9
:10139000003801400044004000480040004C00403C
:1013A00000500040005001400054014021B18289AA
:1013B00042F40052828104E082894DF6FF731A40A4
:1013C0008281704702460020B1F5007F00D100BF46
:1013D00013880B400BB1012000E00020704770B56E
:1013E0000246002400230025002040F66A16B14280
:1013F00000D100BFC1F3421501F01F03012606FA18
:1014000003F3012D02D19689334006E0022D02D16B
:10141000168A334001E0968A33400C12012606FA00
:1014200004F41688344013B10CB1012000E0002010
:1014300070BD00002DE9F04786B005460F46002438
:10144000A24600BF00BF0026B88900B100BF2E46EB
:101450002C8A4CF6FF700440F88804432C82AC8937
:101460004EF6F3100440B888398908437989084357
:101470000443AC81AC8A4FF6FF400440B889044372
:10148000AC826846FFF762FC1448864205D01448D7
:10149000864202D01348864202D1DDF80CA001E05A
:1014A000DDF808A00AEBCA0000EB0A1039688900D1
:1014B000B0FBF1F86420B8FBF0F0040120096421CE
:1014C00001FB1089322000EB0910B0FBF1F000F0B5
:1014D0000F0004432C8106B0BDE8F08700380140BE
:1014E0000050014000540140C1F30802828070475F
:1014F00000BFFEE7FFF770FB4FF49640FFF76EFE6C
:101500003C49481EB0F1807F00D31BE0481E4FF0DD
:10151000E022506150170F22002804DB13071E0E33
:10152000354B1E5406E013071F0E344B00F00F0618
:10153000361F9F5500BF00204FF0E022906107202A
:10154000106100BF64202E49088000202D490870DA
:1015500000BF2B48008838B12A4800787A2803D089
:10156000284800785A28F4D125480088002837D028
:1015700025A000F09BF800F065F800242EE021483B
:1015800000783F2817D005DCE8B1312807D0322891
:101590001AD10EE05A2815D07A2815D111E0FEF79D
:1015A0001BFFFFF777FC00F04DF80020154908708D
:1015B00013E0012411E000F045F800201149087003
:1015C0000BE000BF00BF08E000F03CF817A000F0FF
:1015D0006DF800200B49087000BF00BF002CCED072
:1015E0001749086880F3088800BF08464568A8477F
:1015F00000BFFEE700C4090000E400E018ED00E0D1
:1016000000000020020000200D0ABABCD6DDD6D0B2
:10161000B4B40D0A426F6F746C6F616465722056CA
:1016200065723A332E30300D0A0000000D0A2A2A66
:101630002A20CEDED0A7C3FCC1EE21200D0A000077
:101640000040000810B508A000F030F80DA000F030
:101650002DF810A000F02AF812A000F027F802A040
:1016600000F024F810BD00000D0A2D2D2D2D2D2D7C
:101670002D2D2D2D2D2D2D2D2D2D2D2D2D2D2D2D9A
:101680000D0A00005B315DCFC2D4D8B3CCD0F20DCF
:101690000A0D0A005B325DD4CBD0D0B3CCD0F20DB2
:1016A0000A0D0A005B3F5DB0EFD6FA0010B50446A4
:1016B00042F21070FEF720FF2B480078012802D07C
:1016C00004284ED126E02948008820F0040027494C
:1016D00008800DE000BF802124480C38FFF772FE1F
:1016E0000028F8D0217821480C38FFF7FDFE641C53
:1016F00020780028EED100BF1C480C38008800F08C
:1017000040000028F8D01948008840F0040017492C
:10171000088026E01648008820F00400144908805C
:101720000DE0217812480C38FFF7DEFE00BF802163
:101730000F480C38FFF746FE0028F8D0641C2078CC
:101740000028EED100BF0A480C38008800F04000A5
:101750000028F8D00648008840F0040004490880BA
:1017600000BF00BF10BD0000050000200C38014084
:101770000C4C0040000000000102030401020304BD
:101780000607080901020406080A0C102020202080
:1017900020202020010002000400060008000A00AA
:1017A0000C0010002000400080000001000100013A
:1017B00000010001D41700080000002018000000FC
:1017C000D4010008EC17000818000020601A00007F
:1017D000F001000800000000000000000000000010
:0C17E000CDAB10320000000000A24A0453
:040000050800019955
:020000040800F2
:1040000000390020B1420008F9FF0008F9CA000891
:10401000E1FF00080D6F0008753C0108000000007A
:104020000000000000000000000000008D080108F2
:104030006993000800000000C74200083F1A010809
:10404000CB420008CB420008CB420008CB4200081C
:10405000CB420008CB420008CB420008CB4200080C
:10406000CB420008CB420008CB420008CB420008FC
:10407000CB420008CB420008CB420008CB420008EC
:10408000CB420008CB420008CB420008CB420008DC
:1040900005360108CB420008CB420008CB4200089D
:1040A000CB420008CB420008CB420008CB420008BC
:1040B000CB420008CB420008391D0108CB42000862
:1040C000CB420008CB420008CB420008CB4200089C
:1040D000CB420008392B0108CB420008CB42000834
:1040E000C9B10008CB420008B3300108CB42000838
:1040F000CB420008CB420008CB420008CB4200086C
:10410000CB420008CB420008CB420008CB4200085B
:1041100005250108CB420008CB420008CB4200082D
:10412000CB420008CB420008CB420008CB4200083B
:10413000CB420008CB420008CB420008CB4200082B
:10414000CB420008CB420008CB420008CB4200081B
:10415000CB420008CB420008CB420008CB4200080B
:10416000CB420008CB420008CB420008CB420008FB
:10417000CB420008CB420008CB420008CB420008EB
:10418000CB420008CB420008CB420008CB420008DB
:10419000CB420008CB42000800F002F800F076F8AD
:1041A0000AA090E8000C82448344AAF10107DA4592
:1041B00001D100F06BF8AFF2090EBAE80F0013F06E
:1041C000010F18BFFB1A43F001031847A02F03008B
:1041D000C02F03000A444FF0000C10F8013B13F00D
:1041E000070408BF10F8014B1D1108BF10F8015B50
:1041F000641E05D010F8016B641E01F8016BF9D143
:1042000013F0080F1EBF10F8014BAD1C0C1B09D199
:104210006D1E58BF01F801CBFAD505E014F8016B0B
:1042200001F8016B6D1EF9D59142D6D3704700009D
:104230000023002400250026103A28BF78C1FBD8AF
:10424000520728BF30C148BF0B607047662915F080
:104250008F86672915F08C86642900F0AD8073295C
:1042600000F08386002070471FB500F087FF040030
:104270000020002114F0CAFC401C606000200021D6
:1042800014F0DAFCE0601FBD10B510BD01F0A8F815
:104290001146FFF7E9FF13F017FD01F043FB03B4EC
:1042A000FFF7F2FF03BC01F071FD000040BA704758
:1042B0000948804709480047FEE7FEE7FEE7FEE7BA
:1042C000FEE7FEE7FEE7FEE7FEE7FEE704480549F6
:1042D000054A064B70470000411A01089941000841
:1042E00000210020003900200024002000240020AC
:1042F0000FB41CB5074B06AA7B446946009005988D
:1043000000F009FE0020694600F018FE1CBC5DF8B4
:1043100014FB0000410C000070B50446856900687C
:10432000C10601D5302600E02026C00707D070BDA9
:10433000D4E9012130469047206A401C20626D1E5E
:10434000F6D570BD70B5044685690078C00707D101
:1043500070BDD4E9012120209047206A401C2062D2
:104360006D1EF6D570BD70B50C460546012A05D008
:104370002878800600D5EA69002302E0012305E0E1
:104380005B1C934202D2E05C0028F9D1A869E618D0
:10439000C01AA861286A184428622846FFF7BCFFA3
:1043A00004E0D5E9012114F8010B9047B442F8D399
:1043B0002846FFF7C7FF70BD2DE9F04106460024EF
:1043C00010687529314616A510D0AFF3008000287B
:1043D00002DA404213A507E031688A0701D512A529
:1043E00002E0490704D511A5012401E0AFF30080E4
:1043F00000210A2206F1240709E0B0FBF2FCB0FB21
:10440000F2F302FB1C00303078541846491C002897
:10441000F3D123462A463046BDE8F04100F00DBBFB
:10442000000000002D0000002B0000002000000014
:104430002DE9F05F894604464FF0000ADFF824B109
:10444000FB44C0F820A02046E168884700287DD0C2
:10445000252806D0D4E901219047206A401C20621B
:10446000F1E700255F462046E16888472028064698
:1044700007DB312E05D2B81910F8200C08B105431E
:10448000F1E7A80701D525F00405C4F81CA0002712
:10449000C4F818A02A2E09D030460FF0CCFF38B34C
:1044A00004EB8708303EC8F8186019E059F8041B7F
:1044B000204604EB87029161E1688847012F064698
:1044C00018D1E069002820DA25F020051DE0D8F891
:1044D000180000EB800006EB40003038C8F81800E8
:1044E0002046E168884706460FF0A5FF0028EED178
:1044F000012F0AD02E2E08D12046E16888477F1C64
:104500000646022F45F02005C4DBA069002803DA27
:10451000404245F00105A061E80701D025F01005F3
:10452000A6B1A6F14100192802D8203645F400654D
:104530004A463146204625604D46FFF787FE60B16A
:10454000012807D0ED1D25F0070000E007E000F18D
:10455000080978E705F1040975E730467AE7206A2B
:10456000BDE8F09F5829030070B5064600F056FAE2
:104570000468054630460A22002100F002F82C604B
:1045800070BD2DE9F04791460F468046044600264F
:1045900014F8015B2DB100F039FA0068405DC007E6
:1045A000F6D12B2D02D02D2D18D0641E4A46394647
:1045B000204600F0DEFC27B13968A14201D1C7F8DE
:1045C00000804FF0020471050BD54042002803DD46
:1045D00000F024FA0460A007BDE8F08746F4806686
:1045E000E4E70028F8DA00F019FA04606FF0004000
:1045F000F2E710B5431E13F8014F002CFBD105E084
:1046000011F8014B002C03F8014B03D0521EF7D2D6
:104610000021197010BD40EA0103024630B59B0726
:1046200010D14FF0013400E008C208C91D1B9D43A2
:1046300015EAC41FF8D013F0FF0102F8011B0DD0DA
:104640001B0AF8E711F8013B002B02F8013B05D0EB
:1046500011F8013B002B02F8013BF3D130BD10B53E
:10466000431C02E010F8011B71B18107FAD14FF031
:10467000013202C88C1A8C4314EAC211F9D0C01A54
:104680000A0603D0C01E10BDC01A10BD0A0401D016
:10469000801E10BD0902FCD0401E10BDCBB22AB155
:1046A00001788B4203D0401C521EF9D10020704784
:1046B00040EA010370B59B072ED14FF00136042A62
:1046C0002AD308C810C99D1B9D43121F15EAC615A1
:1046D00017D0D8B2E1B2401A50EA056110D198B2B1
:1046E000A1B2401A50EA05410AD123F07F4024F0DC
:1046F0007F41401A50EA052102D1180EA0EB146048
:1047000070BDA342DBD018BA21BA884201D901207A
:1047100070BD4FF0FF3070BD0AB9002070BD10F8B9
:10472000013B11F8014B63B1A3420AD1521E08D0DC
:1047300010F8013B11F8014B1BB1A34201D1521EED
:10474000EDD1181B70BD421E12F8013F002BFBD1AA
:1047500011F8013B002B02F8013BF9D17047032A05
:1047600040F2308010F0030C00F0158011F8013B8E
:10477000BCF1020F624498BF11F801CB00F8013B75
:1047800038BF11F8013BA2F1040298BF00F801CB39
:1047900038BF00F8013B11F0030300F06780083ACE
:1047A000C0F0088051F8043B083A51F804CBA0E867
:1047B0000810F5E7121D5CBF51F8043B40F8043BBC
:1047C000AFF30080D20724BF11F8013B11F801CBF1
:1047D00048BF11F8012B24BF00F8013B00F801CBC2
:1047E00048BF00F8012B7047431A28BF9A427FF652
:1047F000B6AF032A1044114440F2268010F0030F94
:104800001EBF11F8013D521E00F8013D10F0030FCC
:104810007FF4F6AF11F0030300F05F84083AC0F0B4
:104820000B8051F8043D083A51F804CD40F8043D9E
:1048300040F804CDFFF7F3BF121D5CBF51F8043DF3
:1048400040F8043DAFF30080D20724BF11F8013DCA
:1048500011F801CD48BF11F8012C24BF00F8013D2B
:1048600000F801CD48BF00F8012C704710B5203A80
:10487000C0F00B80B1E81850203AA0E81850B1E819
:104880001850A0E81850BFF4F5AF5FEA027C24BFCF
:10489000B1E81850A0E8185044BF18C918C0BDE8C6
:1048A00010405FEA827C24BF51F8043B40F8043B8F
:1048B00008BF7047D20728BF31F8023B48BF11F844
:1048C000012B28BF20F8023B48BF00F8012B70479E
:1048D00002F0FF0343EA032242EA024200F029BC4D
:1048E0004FF0000200B5134694469646203922BF89
:1048F000A0E80C50A0E80C50B1F12001BFF4F7AFD4
:10490000090728BFA0E80C5048BF0CC05DF804EBB5
:10491000890028BF40F8042B08BF704748BF20F823
:10492000022B11F0804F18BF00F8012B704710B513
:10493000044610F0030F08BF11F0030F40F015807C
:104940004FF0013E121FC0F20E8051F8043BA3EB62
:104950000E0C2CEA030C1CEACE1C08BF40F8043BEA
:10496000F0D0A1F1040102F10402521E08DB11F89B
:10497000013B002B00F8013BF7D1114600F0D7FBBB
:10498000204610BD4FF0013C50F8042B51F8043B79
:104990009A4221D1A2EB0C03934313EACC1317D113
:1049A00050F8042B51F8043B9A4215D1A2EB0C03AA
:1049B000934313EACC130BD150F8042B51F8043B6A
:1049C0009A4209D1A2EB0C03934313EACC13DBD038
:1049D0004FF00000704700BFD01A01BAB1FA81F160
:1049E00001F0180122FA01F0CB40C1F12001DBB245
:1049F000C0B2C01A2CFA01F3D11A914311EAC311C3
:104A0000E6D17047704770477047000010B500F05E
:104A1000B5FB001D10BD00BFF54101000048704707
:104A2000A020002010B5FFF7F9FF006810BD10B5F9
:104A30000446FFF7F3FF046010BD2DE9F0470D4673
:104A400099469246044600F124080168880604D578
:104A5000E06921F01001216000E00120A84201DDA1
:104A6000471B00E00027A1697A1902EB0900081A28
:104A7000A0612078C00602D42046FFF74DFC002636
:104A800008E0D4E901211AF806009047206A401C8A
:104A9000761C20624E45F4DB2078C0060AD52046FD
:104AA000FFF73AFC06E0D4E9012130209047206A64
:104AB000401C2062381EA7F10107F4DC07E0D4E9AE
:104AC000012118F805009047206A401C2062281E2A
:104AD000A5F10105F3DC2046FFF734FC2078000641
:104AE00002D50220BDE8F0870120FBE770472DE9E1
:104AF000FF4F0C461E464FF0FF378BB0D2E9000146
:104B0000DDF860800A908A46C1F30A5505B93D4632
:104B1000002108464FF00000BAF1000F00F44000F9
:104B200005DA00EB80004FF4400101EA50004FEA43
:104B30009059B9F1010F00DDB9460A9850EA4A00D0
:104B40000ED044F61050A5F2FF3545432F14B8F1AE
:104B5000000F1ED07542291E1EDDC9F100021CE0A7
:104B6000B8F1010F4FF0000001D0302103E0F24313
:104B700005E02154401CB042FBDB304600220021FE
:104B800021540B99C1F80880C1E900200FB0BDE89D
:104B9000F08FBD1B6D1CDEE74A4600DA694206A8AD
:104BA00000F0ACFB06AB93E8070003AB83E807001B
:104BB00050460A9901F004F98DE80700A0F500506D
:104BC0001F3800900398002D0ADD42F21F014A466B
:104BD0000844002303A90390684601F0AFFB09E0F5
:104BE000A0F500504A461F38002303A903906846E9
:104BF00001F0CEFB8DE807000004000C03D04FF05D
:104C0000FF30410800E01046B8F1000F03D0002249
:104C1000009215461EE0751E05D400F0B3FA30323E
:104C200062556D1EF9D5B3460122084302D0002219
:104C30007F1C04E02078302801D100227F1E002A4A
:104C4000099784D01DE0112D07DA00F09BFA30326D
:104C500062556D1C50EA0102F5D1084302D000985C
:104C6000C8B10EE00021681E05E0235C625C63545D
:104C70002254401E491C8142F7DBAB46A81B401E54
:104C80000990002004F80B000B98099AC0F80880DE
:104C9000C0E9002B7AE711264FF0000857E72DE90D
:104CA000F04F88460446D21D22F0070191B0D1E9A9
:104CB0000001CDE90A010FF0BBFA02460B98C00FC4
:104CC00001D02D2007E02068810701D52B2002E0CC
:104CD000202101EAC000032A099001D0072A05DB40
:104CE00003464146204600F09BFA0BE120788006FF
:104CF00001D5E06900E00620B8F1650F814606D0D5
:104D0000B8F1660F18D0B8F1670F70D131E000200C
:104D1000B9F1110F009001DB112301E009F101034A
:104D20000AAA01A90CA8FFF7E2FEDDE90C70002633
:104D300009F10105834647E001204B4600904FF002
:104D400000470AAA01A90CA8FFF7D1FEDDE90DB0C2
:104D50000C995D46002610B909F101000D18B9EB58
:104D6000050003D4C0F1FF3609F10105A5EB0900E8
:104D70002BE0B9F1010F01DA4FF001090020B9F180
:104D8000110F0090484601DD112300E003460AAAF6
:104D900001A90CA8FFF7ABFEDDE90C704D4600261B
:104DA0008346207800070AD4AB4500DA5D4601A8A7
:104DB000012D04DD411911F8011C302907D04F45A0
:104DC00002DA17F1040F04DA012082460FE06D1EAB
:104DD000EEE7002F02DCED1B3E4403E0781CA84206
:104DE00000DD7D1CB81B00F1010A4FF00047207860
:104DF000000703D4AA4501DB4FF0FF3A0021B7F1C9
:104E0000004F0DF143088DF8431024D002202B23CE
:104E1000002F01DA7F422D230A21021EA0F101009A
:104E200000DC5FB197FBF1FC97FBF1F201FB1C7C0E
:104E300017460CF1300C08F801CDEEE7A8F101009F
:104E400003702188090501D5452100E06521A0F105
:104E5000010800F8011C09980FA9A1EB0807FF1D24
:104E600000B10120411901EBEA70A1693844081A28
:104E7000401EA0612078C00602D42046FFF74CFAFD
:104E8000099828B1D4E901219047206A401C20628A
:104E90002078C00622D52046FFF73EFA1EE0002EFD
:104EA00004DBB34502DD01A8805D00E03020D4E9D9
:104EB00001219047206A401C2062761CAAF1010063
:104EC0005FEA000A0AD100F059F9C0680168405C45
:104ED000D4E901219047206A401C2062281EA5F1D8
:104EE0000105DCDC07E0D4E9012118F8010B90474B
:104EF000206A401C2062381EA7F10107F3DC20461F
:104F0000FFF720FA032011B041E6000001694A1CB6
:104F100002610878704700B58FB0CDE901310021FA
:104F2000059105497944CDE9031011466846FFF71C
:104F30007FFA0FB000BD0000E5FFFFFF0A6802F82E
:104F4000010B0A60704710B5436913B1AFF30080DD
:104F500001E0FFF708FA012010BD127800F12401EA
:104F60000A7000224A700122EDE711684FF0FF320B
:104F7000E9E72DE9F05F824615468B4600270AF1E6
:104F80000104B9460078302801D09DB113E014F82F
:104F9000010B0127782803D0582801D045B10AE039
:104FA0000DB1102D07D1002714F8010B102502E0D8
:104FB000082500E00A250026B0460EE005FB0800A3
:104FC00005FB06F101271FFA80F801EB1046B6F544
:104FD000803F00D3B94614F8010B294600F060F970
:104FE0000028EBDABBF1000F05D00FB1641E00E022
:104FF0005446CBF80040B9F1000F06D0FFF70EFD84
:1050000002210160C81EBDE8F09F48EA0640FAE7A9
:105010000FB4002300B589B00CA900910B99CB60A7
:10502000214B7B440693214B7B44079304236FF071
:105030000042CDE901321E4A7A446B46089202468C
:10504000002014F0F7FF09B05DF814FB70B50646B8
:105050004FF0FF3015460C46324686B00091CDE940
:10506000010169460020049004A8FFF7D1FF024621
:105070000498211825B108B1084600E020462860B0
:10508000049800280DD0002A02DD0098884208D03C
:105090003246081B69460094CDE9010404A8FFF7D5
:1050A000B7FF06B070BD000097020000AF0200001D
:1050B000D3010000431A28BF9A427FF6D7AB1044B1
:1050C00010F0030F11441EBF11F8013D521E00F8ED
:1050D000013D10F0030F7FF4F6AF103AC0F00A80E4
:1050E00010B531E91850103A20E91850BFF4F9AF63
:1050F000BDE81040530724BF31E9081020E908102B
:1051000044BF51F8043D40F8043D12F0030F08BFBE
:105110007047D20728BF31F8023D48BF11F8012C73
:1051200028BF20F8023D48BF00F8012C70474FF01F
:1051300000020429C0F0128010F0030C3FF4D2AB3F
:10514000CCF1040CBCF1020F18BF00F8012BA8BF72
:1051500020F8022BA1EB0C01FFF7C4BB5FEAC17C76
:1051600024BF00F8012B00F8012B48BF00F8012BE9
:105170007047000000487047A0200020004870479A
:10518000C020002030B5B0F10A024FEA900E71F154
:1051900000034EEA817EB0EB0E0061EB91014FEA15
:1051A000101E4EEA017E10EB0E0041EB11114FEA8A
:1051B000102E4EEA016E10EB0E0041EB11214FEA6A
:1051C000104E4EEA014E10EB0E0041EB114140181B
:1051D00041F100014FEAD00040EA41704FEAD101AD
:1051E00010EB80054FEA810444EA907444EB01041B
:1051F0006D1944EB0404521BA3414FF0000348BF58
:105200000A3200D530BD401C41F1000130BD10B55F
:105210000446FFF7FBFB0068005D00F0010010BDD5
:105220002DE9F0411F46044603260168072A01F4D0
:10523000006004DB08B116A505E016A503E008B17F
:1052400015A500E015A521F010002060A069C01E82
:10525000A0610FB1401EA0612046FFF75DF84FB17D
:10526000D4E9012138469047206A401C2062C01CC6
:10527000206206E0206AFAE7D4E9012115F8010B63
:105280009047761EF8D22046FFF75CF8BDE8F08123
:105290004E414E006E616E00494E4600696E6600DA
:1052A0003A2800D2303820F02002412A01D3A2F15E
:1052B0003700884201D34FF0FF307047426842B157
:1052C000016811F8013B23B1521EC0E900121846D3
:1052D00070470121C160881E704742685AB1C36897
:1052E000016843B983688B4205D0491E521CC0E94E
:1052F0000012002070474FF0FF3070472DE9F04753
:10530000814616468AB0354878440DC88DE80D00B0
:1053100032487844801C03AC0DC884E80D0041F687
:105320009B300844372190FBF1F290FBF1F5A5F199
:10533000800501FB12041B3C02D56442012000E001
:105340000020DFF898A080460027FA44AAF1BE0AA0
:105350000EE0E0070AD03246684607EB470101231A
:105360000AEB810101F014F88DE8070064107F1C3E
:10537000002CEED1194F7F44AE3F19E0E80715D05D
:1053800007EB04100DF1180A90E80E008AE80E00F1
:10539000C068F04201D1981908903246012306A94D
:1053A00003A800F0F5FF03AB83E807006D10641C51
:1053B000002DE3D14FF0010332466946B8F1000FEA
:1053C00003A802D000F0BAFF01E000F0E1FFC9E954
:1053D0000001C9F808200AB0BDE8F087001C0300EE
:1053E0007546FFF7C7FEAE4605006946534620F0F6
:1053F0000700854618B020B5FEF768FFBDE82040DD
:105400004FF000064FF000074FF000084FF0000B80
:1054100021F00701AC46ACE8C009ACE8C009ACE833
:10542000C009ACE8C0098D46704700002DE9FF4F68
:1054300006468BB00878FF2806D0491C2D2805D0D9
:1054400000244FF0000908E000200CE00124F8E7F8
:1054500009EB8903491C00EB43090878FF28F7D1C1
:1054600014B1C9F100008146107800252C46AA46E7
:1054700029462D2801D02B2804D1521C2D2813D0C9
:10548000002082468B461078FF280FD04FF0000C8A
:105490000A21521CA5FB017804FB018105FB0C11BC
:1054A000C5194BEB0104EEE70120EAE700210846AD
:1054B0004FF00000BAF1000F02D000EB800040086E
:1054C000C0F38157012F01DD4FF0FF370E9955EAE8
:1054D000040009EB01080BD04FF0020918F5FA7F20
:1054E00016DA4FEACA70002F706008DD012007E06D
:1054F0004FEACA70C6E900B00FB0BDE8F08F0020D7
:105500003060FFF78BFAC0F800901821084616E0CB
:10551000B8F5FA7F18DD002F02DAF748784401E089
:10552000F6487844D0E90010C6E9001040EACA7095
:105530007060FFF773FAC0F80090142108460FB0AE
:10554000BDE8F04F14F011BD002108464FF00000F7
:10555000B8F10001099002DAC7F1000200E03A4612
:1055600001DAC8F1000106A8FFF7C8FE06AB93E810
:10557000070003AB83E8070044F23E005BEA040146
:105580000090584604D144F21E012C465D4600911D
:10559000210C0904014306D10099240444EA15446E
:1055A0002D041039009104F07F41014306D1009988
:1055B000240244EA15642D020839009104F0704178
:1055C000014306D10099240144EA15742D01091FF5
:1055D000009104F04041014306D10099A40044EA3F
:1055E0009574AD00891E009104F00041084304D178
:1055F00000986D196441401E00904FF001033A4637
:105600006846B8F1000FCDE9014503A902DD00F0BD
:10561000D4FE01E000F0A7FEBAF1000F04460D46EB
:1056200001D084F00044002108464FF000000999A1
:1056300040F2FF77484010F00C0F07D124F00040F3
:10564000284303D0C4F30A50B84212D1FFF7E6F959
:10565000C0F80090C4F30A50B8420AD1A848784470
:10566000D0E90010C6E9001004F000410843706062
:1056700042E7C6E900543FE72DE9FF4F1F464FF0D0
:10568000000A4FF0FF38454691B0D7E90146CDF802
:105690003CA0FFF773FDC0680168405C1090B969D9
:1056A00012986D1C8847396A814688470028F6D1D0
:1056B000B9F1FF3F0AD0002E24F4D06411DDB9F116
:1056C0002B0F08D0B9F12D0F0BD102E0404615B0D9
:1056D00013E744F48064B96912986D1C8847761EFC
:1056E0008146600504A901D52D2000E02B20002E65
:1056F00001F1010B0DF130088DF810003FDDB9F11B
:10570000690F08D0B9F1490F05D0B9F16E0F02D079
:10571000B9F14E0F1CD13B4601A8009580E850021C
:10572000DDE912126FF0020014F088FCC11CCED12A
:105730000EE0B96912986D1C884781461398761E51
:1057400044F4007405600F98401C002E0F9016DD85
:10575000B9F1300FEDD0B9F1780F02D0B9F1580F8F
:105760000DD10F9801280AD13B46CDE90054DDE95F
:105770001212001F029614F05FFCC11CA7D11099F1
:1057800089453ED144F0800406E01399681CAAF1D3
:10579000010A44F400740860B9696D1C1298761E01
:1057A000884730288146F0D02BE01099894505D1F3
:1057B000200603D4761E44F0800418E048460EF01C
:1057C0003AFE08B3761E0DF123018B4544F40074B4
:1057D00008D2A9F130000BF8010B200607D5AAF179
:1057E000010003E0200602D40AF101008246A00570
:1057F00002D51399681C0860B96912986D1C884716
:105800008146002ED1DC53E0002E51DDB9F1650F49
:1058100002D0B9F1450F4BD1A00549D5B9696D1C2E
:105820001298761E24F440748847002E81460CDDC1
:105830002B2804D0B9F12D0F07D144F48074B96935
:1058400012986D1C8847761E8146E00501D52D21F2
:1058500000E02B2108F8011BCDF8008021E0761E26
:105860000DF13901884544F400740CD2A9F13000DF
:1058700010F0FF0088F8000002D10099884509D98E
:1058800008F1010806E0E00501D51E4801E042F2FA
:105890000F708246B96912986D1C8847814613982B
:1058A0000560002E04DD48460EF0C5FD0028D6D167
:1058B000F96912988847FF2053468BF8000088F852
:1058C000000000200A900B9004AA0CA90AA8FFF778
:1058D000ADFDA00502D46FF00100F8E614F0240F2E
:1058E00012D0E0071CD13868DDE90A12031D3B60C5
:1058F0000068C0E9001213E0741C0300661C03007A
:105900002A1B0300F1D8FFFF0AA968460EF022FD0A
:10591000E00705D13868009A011D3960006802600F
:105920002846D4E610B50446AFF300802046BDE813
:105930001040FEF7B4BC00002DE9FF4F1F464FF0AA
:105940003C0987B04FF00042DDE9141001F1010875
:10595000DDF858A002EA40500390002005908346ED
:10596000054604460490B969461E08988847AAF17E
:10597000010A0290BAF1000F3BDD02982E2815D0E3
:105980001021FFF78DFC00282EDB4FF0010B05994D
:10599000014317D0B9F1000F0BDB4A46C11700F0E5
:1059A000FBF905430C43A9F1040905E0012004902B
:1059B0000BE008B145F0010501200590049820B9DD
:1059C000361D02E0049800B1361FB969089808F145
:1059D00001088847BBF1000FAAF1010A0290C9D063
:1059E0000999C1F80080C5E70298702808D05028AE
:1059F00006D0F96908988847BBF1000F14D04FE032
:105A0000002002900120BBF1000F049009D0B96979
:105A1000089808F101088847AAF10109B9F1000FB7
:105A200007DCF969089888476FF001000BB0BDE802
:105A3000F08F2B2804D02D280CD14FF0FF3004908C
:105A4000B969089808F101088847A9F10109B9F175
:105A5000000FE6DD411CE4D00A21FFF721FC0028FD
:105A6000DFDB029908F1010801EB810100EB410045
:105A70000290B969089888470A21FFF711FC099A32
:105A8000A9F10109B9F1000FC2F8008001DD002879
:105A9000E7DAF969089888470499029800FB0166DB
:105AA00055EA040004D004F04041090002D006E0A9
:105AB000039898E0A40044EA9574AD00B61E04F083
:105AC0000041080002D16D196441761E159810F04E
:105AD000240F03D04FF00B095C4803E04FF0280976
:105AE0006FF07D008246564507DAAAEB060189442D
:105AF000B9F1410F01DD4FF0410901200021A9F169
:105B0000010200F049F9024628400B4621400843B3
:105B100001D0012100E00021501E029143F1FF312C
:105B200028402140084301D0012000E000200299D4
:105B3000834651EA0B014FD0002108464FF0000088
:105B4000039900F4400039B100EB80004FF44001AC
:105B500000EBD07001EA60008015012802DD4FF0F3
:105B6000FF3000E013D0401C36D0029860B3BBF188
:105B7000000F0CD14A460120002100F00DF9284009
:105B80002140084301D0012000E00020E0B10120C5
:105B90004A46002100F000F9034640190A466141D7
:105BA0002D1A8C4111D3B9F1400F09DD159810F071
:105BB000240F02D0AAF1340603E0AAF1170600E090
:105BC000761C00254FF0004406E05B1E42F1FF32D8
:105BD00020EA030521EA0204CAF10100B04206DA14
:105BE0001B49039808430190002000900EE0039A9F
:105BF000C4F3D321E80A0A43164940EA44500A4351
:105C00003146CDE9000268460EF00AFC159810F006
:105C1000240F0BD01598C00715D13868DDE90012A4
:105C2000031D3B600068C0E900120CE002A8694651
:105C30000EF090FB1598C00705D13868029A011D37
:105C40003960006802604046F0E6000002FCFFFF99
:105C50000000F07F0000F03F2DE9FF4F92461D4607
:105C600085B04FF00041DDE9124BDDE914727F1E73
:105C700001EA4B50414940F0FF4940EA0108002148
:105C800022F020004928049102D04E2828D04CE070
:105C90003BA0012607C88DE80700A9690698641C87
:105CA00088477F1E014606D41DF8060018B121F072
:105CB000200181420BD0E96906988847032E34D031
:105CC000082E32D06FF0010009B0BDE8F08F761CCD
:105CD000032E01D0082EE0D1601CCAF80000DCE7DA
:105CE000A9690698641C88477F1E2AD420F02000EA
:105CF000412826D1A9690698641C88477F1E20D4B4
:105D000020F020004E281CD1A9690698641C884701
:105D10007F1E48F4002849F48009CAF8004001D4E5
:105D2000282806D0E969069888475FEACB7012D028
:105D300022E0A9690698641C88477F1E01D40028C8
:105D400003DAE96906988847BCE72928F1D1641C81
:105D5000CAF80040E9E71BF0240F07D0286804992F
:105D6000031D2B600068C0E9001805E02868021DCB
:105D70002A600068C0F800902046A5E70000F07F88
:105D8000494E46494E495459000000000149182027
:105D9000ABBEFEE726000200B2F120030AD5C2F135
:105DA000200301FA02F120FA03F300FA02F041EABB
:105DB0000301704700FA03F14FF00000704770478D
:105DC0005FEA400C08BF91F0000F4FEA8C234FEAC6
:105DD000C12243EA51514FEA1C5018BF00F5F04070
:105DE0004FEA300018BF41F000415FEA6C5C00F000
:105DF0002980BCF1FF3F08BF40F080407047130C82
:105E000006BF12044FF0100C4FF0000C130E04BF2D
:105E100012020CF1080C130F04BF12010CF1040C58
:105E2000930F04BF92000CF1020CD30F04BF520079
:105E30000CF1010C11464FF00002A0F11F00A0EB85
:105E40000C00704711F0004F08BF704731F000415F
:105E50003FF4D5AF0B0C06BF09044FF0100C4FF008
:105E6000000C0B0E04BF09020CF1080C0B0F04BF51
:105E700009010CF1040C8B0F04BF89000CF1020C1A
:105E8000CB0F04BF49000CF1010CCCF12003A0EBB7
:105E90000C0022FA03F302FA0CF241EA030100F1CA
:105EA0000100704720F07F4C80EA030023F07F4719
:105EB000ACEB070303F57C5300F0004003F1FF0354
:105EC0002DE980494FEA154B09B44FEA144325EAFE
:105ED0000B4E24EA03480FF2042606EB1327490869
:105EE0003E785FEA320203FB0667C7F5000707FB4F
:105EF00006F64FEA54374FEAD64606F1020607FB8C
:105F0000066CCCF1005C4FEA1C472CEA074C07FBFF
:105F100006F40CFB06F504EB15464FEA961634BF63
:105F200000204FF000404FEAD13706FB07FC4FEA54
:105F30001C4C0CFB0BF7D21B03FB0CF761EB0701AE
:105F40000CFB0EF7B0EB074072EB17420CFB08F7A7
:105F500034BFA2EB0742B2EB074261EB17414FEAB5
:105F60000C444FEA910706FB07FC4FEA1C4C0CFB64
:105F70000BF7B0EBC74072EB573203FB0CF734BFA3
:105F8000A2EBC742B2EBC74261EB57310CFB0EF7F5
:105F9000B0EBC70072EB57720CFB08F734BFA2EBF3
:105FA000C702B2EBC70261EB5771039F4FEA8161F1
:105FB00041EA921104EBCC044FEAD1374FEA8262F6
:105FC00006FB07FC42EA90124FEA80604FEA1C4C45
:105FD0000CFB0BF7D21B03FB0CF761EB07010CFB6F
:105FE0000EF7B0EB074072EB17420CFB08F734BF1B
:105FF000A2EB0742B2EB074261EB17414FEA8C5527
:106000004FEA910704EB9C2406FB07FC4FEA1C4C6B
:106010000CFB0BF7B0EBC74072EB573203FB0CF7EE
:1060200034BFA2EBC742B2EBC74261EB57310CFB66
:106030000EF7B0EBC70072EB57720CFB08F734BFDA
:10604000A2EBC702B2EBC70261EB577115EB4C250F
:106050004FEA816141EA92114FEA82624FEAD137F9
:1060600042EA901206FB07FC44F100044FEA80600C
:106070004FEA1C4C0CFB0BF7D21B03FB0CF761EB3C
:1060800007010CFB0EF7B0EB074072EB17420CFB5D
:1060900008F734BFA2EB0742B2EB074261EB1741AE
:1060A00015EB1C154FEA813141EA92414FEA8232E9
:1060B00042EA90424FEA80304FEA0C7644F1000405
:1060C00048EA03434EEA0B484FF0000EB2EB080CCF
:1060D00071EB030724BF624639464EEB0E0E4FF0BC
:1060E000000B0018524149414BEB0B0BB2EB080C73
:1060F00071EB03077BF1000B24BF624639464EEB80
:106100000E0E4FF0000B0018524149414BEB0B0BA8
:10611000B2EB080C71EB03077BF1000B24BF624666
:1061200039464EEB0E0E51EA020718BF46F0010643
:1061300016EB0E7655F1000254F1000103D5BDE8CF
:106140008901BDE80088BDE88901BDE80048B619AD
:10615000524141EB0101A3F10103704780807F7E32
:106160007D7C7B7A797877767675747372717170CD
:106170006F6E6E6D6C6C6B6A6A696868676666657F
:106180006464636362616160605F5F5E5E5D5D5C0D
:106190005C5B5B5A5A59595858575756565555557E
:1061A0005454535352525251515050504F4F4F4EDE
:1061B0004E4D4D4D4C4C4C4B4B4B4A4A4A4949492C
:1061C000484848474747474646464545454444446E
:1061D00044434343434242424241414146EA064628
:1061E000A3F570534FEA164646EA42564FEAD222CA
:1061F00042EA415210B54FEAD121A3F1010300F068
:106200002FF820F0004000F1020C00F0004701EBF5
:1062100000501146BCF5006F40EA070000D210BDE7
:10622000BAF1000F0AD01CB503B44FF004004FF0D0
:1062300004014FF000000FBCBDE810404FF000011A
:10624000BBF1010FB9BF04484FF0FF3103480021F3
:1062500040EA070010BD00BFFFFFEF7F0000F07FA6
:10626000002B9C4630D477002BD01CB54FEA370763
:1062700003B44FF010004FF01001BAF1000F06D038
:10628000BCF1000FDCBF40F0080040F008014FF007
:1062900000000FBCBDE810400BF1010BBBF1010F7A
:1062A00008BF5FEA170722BF12F1010211F10101D5
:1062B0004FF0004143F1000300F0004043EA0000CA
:1062C0007047F9D35708D0E746EA064613F1400F66
:1062D0004FEA16461FDD13F1200FDFBF16430A46B3
:1062E000002120335B42BED0C3F1200746EA0646B8
:1062F00002FA07F74FEA164646EA0706C3F12007F7
:1063000022FA03F201FA07F721FA03F14FF0000332
:1063100042EA0702A7E746EA020646EA06464FEACD
:10632000164646EA0106BCBF46EA0646360C4FF062
:1063300000034FF000024FF0000194E72DE9804C7C
:106340009A46934670B491E8380007C831EA400C89
:1063500048BF34EA430C03D5FFF7A4FDFFF780FFE5
:10636000F0BCBDE8008C2DE9804C9A46934670B491
:1063700091E8380007C831EA400C48BF34EA430CC2
:1063800003D5FFF78FFDFFF729FFF0BCBDE8008CB8
:106390002DE9804C9A46934670B491E8380007C8BE
:1063A00010F0804F08BF13F0804F03D100F01AF8AF
:1063B000FFF756FFF0BCBDE8008C2DE9804C9A46F3
:1063C000934670B491E8380007C810F0804F08BFBA
:1063D00013F0804F03D100F005F8FFF7FFFEF0BC8B
:1063E000BDE8008C20F07F4780EA030023F07F4C5B
:1063F00007EB0C03A3F57C5300F00040A3F1FE0370
:1064000092F0000F00F0B38095F0000F00F077805D
:106410002DE901494FEA11404FEA144621EA0048AC
:1064200000FB06FC24EA064708FB06F607FB08F813
:1064300000FB07F718EB06484CEB164C4FEA124BE3
:1064400018EB07484FEA15464CEB174022EA0B4E73
:106450000BFB06FC25EA06470EFB06F607FB0EFEC5
:106460000BFB07F71EEB064E4CEB164C4FF00006ED
:106470001EEB074E4CEB174B18EB0B0840F10000DE
:1064800018EB0E0B58EB000840F100008F1A4FF08C
:1064900000013CBFC943661B14BFB5EB040C0021CF
:1064A0003CBFC943F61B4FEA17444EEA8E0E27EA5B
:1064B00004454FEA1C4704FB07622CEA074C05FB26
:1064C00007F70CFB05F604FB0CFC16EB074642EB4A
:1064D000174216EB0C4642EB1C421BEB060658EB30
:1064E0000202414146EA9E0601D5BDE80189B6197E
:1064F000524141EB0101A3F10103BDE801894FEADB
:1065000014454FEA114724EA054621EA074C05FBEA
:1065100007F406FB07F70CFB06F105FB0CFC11EB7F
:10652000074144EB17444FEA124711EB0C4144EB8F
:106530001C4422EA074C05FB07F206FB07F70CFB9D
:1065400006F605FB0CFC16EB074642EB174216EB72
:106550000C4642EB1C456A1854F1000148BF7047D5
:10656000B619524141EB0101A3F10103704795F0C7
:10657000000F37D04FEA11424FEA144721EA024692
:1065800024EA074C02FB07F106FB07F70CFB06F4B5
:1065900002FB0CFC14EB074441EB17414FEA154793
:1065A00014EB0C4441EB1C4125EA074C02FB07F5B8
:1065B00006FB07F70CFB06F602FB0CFC16EB074686
:1065C00045EB174516EB0C4645EB1C42121951F1F1
:1065D000000148BF7047B619524141EB0101A3F1D8
:1065E000010370474FEA14454FEA114724EA054674
:1065F00021EA074C05FB07F106FB07F70CFB06F247
:106600004FF0000605FB0CFC12EB074241EB174173
:1066100012EB0C4251EB1C4148BF7047921841EB02
:106620000101A3F1010370472DE9FF5F8AB0924693
:106630009B46002102915E48039152465B46CDE99C
:106640000010DDE90A010EF0C3F8059013F018F907
:10665000CDE90801DDE908231046194612F01AFEBB
:106660000022534BCDE9020112F048FFCDE90401AD
:1066700012F056FA80468946002213465046594683
:1066800012F0CCFD01D289F0004900210291484866
:106690000391CDE9001018A80FC80EF099F80590E5
:1066A00013F0EEF8CDE90601DDE9062310461946A0
:1066B00012F0F0FD00223E4BCDE9020112F01EFF68
:1066C000CDE9040112F02CFA06460F4600221346CB
:1066D000DDE91A0112F0A2FD01D287F0004732462F
:1066E0003B46DDE9080112F0D5FDCDE90401404645
:1066F0004946DDE9062312F0CDFDCDE90201DDE9D1
:10670000042312F0D3FF04460D460022284B2046F6
:10671000294612F0BDFE02D20024254D08E00022D9
:10672000244B2046294612F079FD01D20024214D48
:10673000204629460DF086FE04460D465046594631
:10674000DDE91A2312F0A6FDCDE90201DDE91823E7
:10675000DDE90A0112F09EFDCDE90001DDE9022329
:1067600012F0B2FA00221346CDE9040112F056FDF0
:1067700017D2002213462046294612F089FE08D27D
:1067800022462B460C480D4912F090FF04460D4658
:1067900007E022462B460848094912F087FF0446C5
:1067A0000D462046294612F05DFA0EB0BDE8F09F76
:1067B0000000F03F0000F0BF4AD8124DFB21094015
:1067C000FB2109C02DE9FF5F04460D4616461F4612
:1067D00032463B463046394612F05CFD80468946DB
:1067E00022462B462046294612F054FD8246424658
:1067F0004B4612F069FACDE9000112F091F9CDE9AA
:10680000020112F02FFA04B0BDE8F09F10B5082283
:10681000F54B1A8004225A803F229A802322DA8084
:1068200003221A812323F04A5381FA2393812323DD
:10683000D381B222EC4B1A822323EB4A53824FF4CA
:10684000C97393822323D3824FF4AB72E64B1A832E
:106850002323E54A53833F2393833E23D383032299
:10686000E14B1A843E23E04A5384FA2393843E2367
:10687000D384B222DC4B1A853E23DB4A53854FF486
:10688000C97393853E23D3854FF4AB72D64B1A86DA
:106890003E23D54A53863F2393865923D38603222A
:1068A000D14B1A875923D04A5387FA239387592308
:1068B000D387B222CC4BA3F840205923CA4AA2F86E
:1068C00042304FF4C973A2F844305923A2F846303D
:1068D0004FF4AB72C44BA3F848205923C24AA2F824
:1068E0004A304FF4C973A2F84C300423A2F84E305A
:1068F0000822BE4B1A8004225A80A0229A802822A5
:10690000DA802D221A812823B84A53817523938176
:106910004823D3812D22B54B1A824823B34A538290
:10692000B92393838823D3832D22B04B1A83682302
:10693000AE4A538340F2451393848823D384AE2216
:10694000AA4B1A846823A94A5384B9239385A823A0
:10695000D38540F24712A54B1A856823A34A538575
:1069600040F245139386A823D3862D229F4B1A8687
:1069700088239E4A5386B9239387C823D3872D2221
:106980009A4B1A87A823994A538740F24513A2F8D5
:106990004430C823A2F846302D22944BA3F840205F
:1069A000C823924AA2F84230B923A2F84C30E82317
:1069B000A2F84E302D228D4BA3F84820E8238B4AB5
:1069C000A2F84A3040F24513A2F85430E823A2F866
:1069D0005630BE22854BA3F850204823834AA2F8A4
:1069E0005230FF2393824823D3820822804B1A809F
:1069F00004225A8050221A8124237D4A5381F02395
:106A000093812423D3815022794B1A824023784AE0
:106A10005382F02393824023D3825022744B1A83F3
:106A20005C23734A5383F02393835C23D3835022E4
:106A30006F4B1A8498236E4A53844FF48273938465
:106A40009823D38450226A4B1A85B423684A53850D
:106A50004FF482739385B423D3855022644B1A86F6
:106A6000D023634A53864FF482739386D023D38610
:106A700050225F4B1A87EC235D4A53874FF4827391
:106A80009387EC23D38708225A4B1A8004225A801A
:106A900008221A812823574A5381442393812823AB
:106AA000D381B022534B1A822823524A5382EC23BB
:106AB00093822823D3824FF4AC724E4B1A8328233F
:106AC0004C4A53834FF4CA7393832823D3830822F9
:106AD000484B1A844323474A53845022454B1A8516
:106AE0004323444A5385B022424B1A864323414AEA
:106AF00053864FF488723F4B1A8743233D4A53878E
:106B00004FF4AC723B4BA3F840204323394AA2F820
:106B100042304FF4D672374BA3F848204323354A0E
:106B2000A2F84A301422344B1A805E225A80142272
:106B30009A807923304AD38014222F4B1A819423D0
:106B40002D4A538114222C4B9A81AF232A4AD38198
:106B50001422294B1A82CA23274A53821422264B15
:106B60009A82E523244AD3821422234B1A834FF4BA
:106B70008073214A5383002033E0362200EB8003E8
:106B80001E4C24F82320982200EB800304EB83039F
:106B90009A80FA2200EB800304EB83031A814FF4FE
:106BA000AE7200EB800304EB83039A814FF4DF7233
:106BB00000EB800304EB83031A8200210DE00E4AF0
:106BC00002EB8002528800EB80030C4C04EB830341
:106BD00003EB81035A804A1C91B20529EFDB421C6A
:106BE00090B20728C9DB10BD98180020E8180020D3
:106BF0004019002088190020E8190020041A0020FC
:106C000010B501460022012308782D2802D1531E19
:106C1000491C03E008782B2800D1491C0EE00878B5
:106C2000302809DB0878392806DC0878303802EB90
:106C3000820400EB440200E002E0491C0029EED18E
:106C400000BF02FB03F010BD10B5054B1880054BCB
:106C50001980054B1A800023044C238010BD0000CE
:106C6000F00C0020F20C0020F40C0020F60C0020A8
:106C700008B50121102009F08BFC10208DF80300CD
:106C80000420ADF8000003208DF802006946034897
:106C900004F0C8FE04200149486108BD001001400D
:106CA0001448008820B314480088401C124908800A
:106CB0000846008811490988884203DC04201049ED
:106CC000086115E004200E4948610B4800880D4911
:106CD000098888420CDD01200749088005480088A2
:106CE000401E80B20349088010B1042004490861A5
:106CF00070470000F40C0020F60C0020F00C00207F
:106D000000100140F20C002000B502221E210520D7
:106D1000FFF79AFF00BD000001460848007B0228EB
:106D200007D107480078012803D10648008880B2BF
:106D30007047054830F81100FAE7000050140020B1
:106D400015010020980100207001002010B50021DD
:106D50004CF2186006F0ECFE4F484078012807D14D
:106D600018234EA240F22311BE2006F091FE2CE023
:106D700049484078022807D118234AA240F223113B
:106D8000BE2006F085FE20E043484078032807D166
:106D9000182346A240F22311BE2006F079FE14E02B
:106DA000182344A240F22311BE2006F071FE1823DE
:106DB00042A240F22311881E06F06AFE182340A268
:106DC00040F22311EE2006F063FE3E480078A8B999
:106DD0003D480078012808D118233CA24FF4927155
:106DE0004FF4CC7006F054FE1DE0182339A24FF486
:106DF00092714FF4CC7006F04BFE14E032480078EC
:106E0000012808D1182335A24FF492714FF4CC70A9
:106E100006F03EFE07E0182332A24FF492714FF4C1
:106E2000CC7006F035FE28480079012813D1264899
:106E30000078012807D118232CA24FF49271122058
:106E400006F026FE26E018232AA24FF492711220A3
:106E500006F01EFE1EE01C480079022813D11A48D5
:106E60000078012807D1182324A24FF49271122030
:106E700006F00EFE0EE0182322A24FF492711220AB
:106E800006F006FE06E018230AA24FF492711220C3
:106E900006F0FEFD10BD0000C01400204D41582D2D
:106EA000000000004D494E2D000000004156472DC6
:106EB00000000000202020200000000020202020D2
:106EC00020202000D5010020681400204C4F4341B1
:106ED0004C200000B1BEB5D82020000052454D4FD7
:106EE00054450000D4B6B3CC20200000204D414EC4
:106EF00000000000CAD6B6AF00000000204558547C
:106F000000000000CDE2B2BF0000000000BFFEE7BD
:106F100010B50BF0DFFB0BF047F90BF0DFFA0CF0CC
:106F20009BFA10BD2DE9FC47074689469046002094
:106F30008DF8000001904C48814546D140460BF049
:106F40000DFF0546042D3ADB2A46FE214046FDF79B
:106F5000A5FB06467EB3A6EB0800C4B224B12046CA
:106F60000BF0DCFE281BC5B2042D28DB701C064686
:106F70000478201D854213DBE01C81B230460DF001
:106F8000C5FB48B9211DC8B20BF0C8FE8DF8004002
:106F9000701C0646019012E001200BF0BFFE0EE0CF
:106FA0003248007832280AD1002030490870012088
:106FB0000BF0B4FE03E0FFE728460BF0AFFEDDE97F
:106FC0000001C7E90001BDE8FC872948814545D19A
:106FD00040460BF05FFE0546042D3ADB2A46FE21B3
:106FE0004046FDF75BFB06467EB3A6EB0800C4B245
:106FF00024B120460BF090FD281BC5B2042D28DBE0
:10700000701C06460478201D854213DBE01C81B20B
:1070100030460DF07BFB48B9211DC8B20BF07CFD5A
:107020008DF80040701C0646019012E001200BF024
:1070300073FD0EE00F48007814280AD100200D4996
:10704000087001200BF068FD03E0FFE728460BF015
:1070500063FDDDE90001C7E90001B4E7DDE90001F6
:10706000C7E9000100BFAEE7004C004079120020E4
:107070000038014078120020F0B5C1B005460F4637
:107080001446FE208DF804008DF80540224639464E
:107090000DF10600FDF763FB611C0DF105000DF01D
:1070A00035FB0646311201AAA01C1154E01C1654EF
:1070B0000948854205D1201DC1B201A80BF082FE0E
:1070C00007E00648854204D1201DC1B201A80BF09B
:1070D000FBFD41B0F0BD0000004C00400038014015
:1070E00070B5C0B005460C46FE208DF800008DF846
:1070F0000140224629460DF10200FDF730FB611CDC
:107100000DF101000DF002FB06463112A01C0DF836
:107110000010F1B2E01C0DF80010201DC1B268464D
:107120000CF0ACFB40B070BD70B505460C46142C9D
:107130006FD2DFE804F00A0F14191E23282D32370E
:107140003C41464B50555A5F646933A12846FDF7D0
:10715000CFF85EE032A12846FDF7CAF859E032A127
:107160002846FDF7C5F854E031A12846FDF7C0F8E0
:107170004FE031A12846FDF7BBF84AE030A1284690
:10718000FDF7B6F845E030A12846FDF7B1F840E03C
:107190002FA12846FDF7ACF83BE02FA12846FDF7CC
:1071A000A7F836E02EA12846FDF7A2F831E02EA17F
:1071B0002846FDF79DF82CE02DA12846FDF798F80C
:1071C00027E02DA12846FDF793F822E02CA12846C0
:1071D000FDF78EF81DE02CA12846FDF789F818E090
:1071E0002BA12846FDF784F813E02BA12846FDF7D4
:1071F0007FF80EE02AA12846FDF77AF809E02AA1D7
:107200002846FDF775F804E029A12846FDF770F837
:1072100000BF00BF70BD000030487A202020000071
:107220003130487A202000003330487A2020000096
:10723000313030487A200000313230487A20200046
:10724000323030487A200000343030487A20000054
:10725000383030487A200000316B487A2020000016
:10726000326B487A20200000346B487A20200000DE
:10727000386B487A2020000031306B487A200000BB
:1072800031356B487A20000032306B487A2000009C
:1072900033306B487A20000034306B487A2000008D
:1072A00035306B487A20000038306B487A20000077
:1072B0003130306B487A000038B5044640F23F1355
:1072C00040F2DF120021084606F080FC00204FF457
:1072D000A0734FF4F0720146009005F087FE4FF660
:1072E0001F002023802200210090084605F07EFE2A
:1072F0004FF6E0714FF61F0006F01AFC182366A245
:107300000321202006F0C4FB182365A234210320AA
:1073100006F0BEFB182364A234216A2006F0B8FBF5
:107320004FF6FF71002006F003FC182361A2342100
:10733000E02006F0ADFB4FF6E071002006F0F8FB10
:1073400018235FA2C821032006F0A2FB18235EA227
:10735000E821032006F09CFB18235DA24FF4847102
:10736000032006F095FB042C4AD14FF6FF704FF432
:1073700096734FF4F072142100904FF4B47005F03E
:1073800035FE00205D234FF4F0725A2100908800F2
:1073900005F02CFE0020A3234FF4F072A0210090F2
:1073A0004FF4B47005F022FE0020E9234FF4F07290
:1073B000E62100904FF4B47005F018FE00214FF65E
:1073C000FF7006F0B5FB182343A22B214FF4BA70CF
:1073D00006F05EFB182343A271214FF4BA7006F049
:1073E00057FB182342A2B7214FF4BA7006F050FBA6
:1073F000182341A2FD214FF4BA7006F049FB2FE09B
:10740000032C2DD14FF6FF704FF496734FF4F072AA
:10741000142100904FF4B47005F0E8FD00205D23C6
:107420004FF4F0725A210090880005F0DFFD002033
:10743000A3234FF4F072A02100904FF4B47005F034
:10744000D5FD0020E9234FF4F072E62100904FF4BF
:10745000B47005F0CBFD00214FF6FF7006F068FB1D
:1074600040F2FF71002006F063FB182324A26A217A
:10747000032006F00DFB4FF6E071002006F058FBEC
:10748000182321A28A21032006F002FB204800785D
:1074900009F014FF38BD0000D0A3D7BC00000000E5
:1074A000B5E7C6BD3A315600C6ABD6C33A306D56C5
:1074B00000000000D7E8BFB93A313030A6B800006C
:1074C000C6B5C2CA3A000000CFEEC4BF3A00000001
:1074D000D7B4CCAC3A000000C8B7C8CFD0A3D7BC53
:1074E00000000000CDCBB3F6D0A3D7BC0000000055
:1074F00020C9CFD2BBB2BD0020CFC2D2BBB2BD002B
:10750000B2BDD6E83A000000B2D9D7F73A00000081
:107510002E00002070B505460C460B2C56D009DC19
:107520000B2C20D2DFE804F01B20252A2F34393E13
:1075300043484D00112C71D008DCA4F10C00052843
:10754000EFD2DFE800F0484D52575C00122C76D0A5
:10755000202C79D0212C6CD0302C04D190E04CA17F
:107560002846FCF7C5FE90E04CA12846FCF7C0FE7B
:107570008BE04DA12846FCF7BBFE86E04DA12846D6
:10758000FCF7B6FE81E04EA12846FCF7B1FE7CE098
:107590004EA12846FCF7ACFE77E04FA12846FCF749
:1075A000A7FE72E04FA12846FCF7A2FE6DE050A1B5
:1075B0002846FCF79DFE68E050A12846FCF798FE9F
:1075C00063E051A12846FCF793FE5EE051A12846F6
:1075D000FCF78EFE59E052A12846FCF789FE54E0E4
:1075E00052A12846FCF784FE4FE053A12846FCF741
:1075F0007FFE4AE053A12846FCF77AFE45E0544856
:107600000078012804D153A12846FCF771FE03E05D
:1076100053A12846FCF76CFE37E0FFE74C480078A2
:10762000012807D151A12846FCF762FE06E006E0DA
:107630000AE017E050A12846FCF75AFE25E051A1C8
:107640002846FCF755FE20E041480078012804D187
:107650004EA12846FCF74CFE03E04EA12846FCF75D
:1076600047FE12E03A480078012804D14BA1284691
:10767000FCF73EFE03E04BA12846FCF739FE04E090
:107680004AA12846FCF734FE00BF00BF70BD0000D1
:10769000444453202020202020000000527334371F
:1076A00035A6B820200000004769332E313620204F
:1076B000200000005273313530A6B82020000000B1
:1076C00047693130202020202000000052733437D9
:1076D0002E35A6B820000000476933312E36202011
:1076E0002000000052733135A6B820202000000091
:1076F0004769313030202020200000005273342EA2
:1077000037356BA6B8000000527331356BA6B82030
:1077100020000000527334372E356BA6B8000000ED
:107720004775312E35382020200000004775352060
:107730002020202020000000477531352E382020E1
:107740002000000047753530202020202000000058
:10775000681400204F50454E2020202020000000BB
:10776000BFAAC2B7D0A3D7BC2000000053484F52D5
:107770005420202020000000B6CCC2B7D0A3D7BC34
:10778000200000005A7374640000000053484F52F8
:1077900054000000B6CCC2B7200000004F50454E48
:1077A00020000000BFAAC2B720000000B1A3B4E6C9
:1077B000CAFDBEDD2000000070B505460C46164827
:1077C0000078012815D115480078022811D1012C24
:1077D00004D113A12846FCF7B6FF1BE024B913A17E
:1077E0002846FCF7B0FF15E013A12846FCF7ABFFD5
:1077F00010E0012C04D113A12846FCF7A4FF09E0F6
:1078000024B913A12846FCF79EFF03E013A12846E4
:10781000FCF799FF70BD0000681400202D000020C7
:1078200020444F494E472020000000005355434359
:10783000455353200000000020204641494C2020A1
:1078400000000000D5FDD4DAD0A3D7BC00000000B2
:10785000D0A3D7BCCDEAB3C900000000D0A3D7BCE9
:10786000CAA7B0DC000000002DE9F0418AB005464F
:107870000C46BB4803C808F06DFDB94806C801A80E
:1078800001F070F9B748DDE9011206C0B648007A88
:1078900001287DD1B54A5169B24A106812F0F0FA58
:1078A0008046B249012303AA486905A90FF070F97F
:1078B00003AAAF49404610F045F803A9AD48FCF7CC
:1078C000AAFEAD49AB480FF0C7FFAB4903A80FF0C4
:1078D000C3FFAA48007800285FD1A948407805284E
:1078E0000DD1A748407800EB8002A6481118204629
:1078F000FCF729FFA4A12046FCF725FF32E0A048B1
:107900004078062815D19E48407800EB80029D48BB
:1079100011182046FCF717FF994800789B4A02EBA4
:1079200040012046FCF70FFF97A12046FCF70BFF14
:1079300018E097A12046FCF706FF9148407800EB3D
:107940008002904811182046FCF7FDFE8C48007814
:107950008E4A02EB40012046FCF7F5FE8AA1204644
:10796000FCF7F1FE04228BA12846FCF742FE072219
:107970007F492846FCF73DFE03227E492846FCF756
:1079800038FE072205A92046FCF733FE032200E05B
:1079900004E003A92046FCF72CFEDFE07149012337
:1079A000744A086872490FF0F3F87548807838B166
:1079B00073488078032803D071488078042807D161
:1079C000684900236C4A486874490FF0E1F823E0E5
:1079D00064494868002112F017FA0BD861494868D9
:1079E00011F04EFF064632460B466DA16B48FCF780
:1079F0007FFC0AE05B49486811F042FF06463246C8
:107A00000B4669A16548FCF773FC644880792E2811
:107A100002D1202061498871574956480FF01CFF58
:107A2000564800780028B8D15548407805280DD12F
:107A30005348407800EB8002524811182846FCF762
:107A400082FE51A12846FCF77EFE32E04C48407889
:107A5000062815D14A48407800EB800249481118A1
:107A60002846FCF770FE46480078484A02EB400181
:107A70002846FCF768FE44A12846FCF764FE18E09F
:107A800043A12846FCF75FFE3D48407800EB8002AA
:107A90003C4811182846FCF756FE394800783B4A06
:107AA00002EB40012846FCF74EFE37A12846FCF7C2
:107AB0004AFE07222E492846FCF79BFD03222D494A
:107AC0002846FCF796FD2E484078052806D138A1B7
:107AD0002046FCF738FE0AB0BDE8F08128488078DF
:107AE000032810D12AA12046FCF72DFE24488078D7
:107AF000334A02EB80012046FCF725FE22A12046F6
:107B0000FCF721FE20E01E48807804280CD11C4898
:107B100080782B4A02EB80012046FCF714FE1AA164
:107B20002046FCF710FE0FE026A12046FCF70BFED6
:107B300013488078224A02EB80012046FCF703FEBE
:107B400011A12046FCF7FFFD072214492046FCF74F
:107B500050FD032208492046FCF74BFD00BFBAE761
:107B6000080000201000002050140020C014002045
:107B700098120020180000201D0000201401002091
:107B80000400002073A201083A000000AEA2010820
:107B90002000000020A1F83A00000000AC120020F4
:107BA0002025362E34660000252B362E3466000044
:107BB00020202D2D2D2D2D2D2D2D202000000000DD
:107BC00096A201082020000070B58AB0044600206B
:107BD00007900890099004900590069001900290FB
:107BE000039000214CF2186005F0A2FF3E48407857
:107BF000002876D0204610F011F800285FD03A48CF
:107C0000007800285BD138484168204612F0FCF823
:107C100001D23548446034488168204611F0F4FFB1
:107C200001D2314884603048C168204611F054FECA
:107C30002D49C86008460069401C08610846407824
:107C4000012806D1012304AA486807A90EF0A0FF65
:107C50001BE025484078022807D12349012304AAC4
:107C6000886807A90EF094FF0FE01F49086911F01A
:107C7000B7FF06461C49C868314611F09BFE054611
:107C8000012304AA07A90EF083FF01A904A80FF09D
:107C9000E3FD182304AA40F22311EE2005F0F8FEBC
:107CA000182307AA40F22311881E05F0F1FE07A948
:107CB0000E48FCF7B0FC04A90C48FCF744FD204634
:107CC0000FF0ACFF68B90848007850B9182308A233
:107CD00040F22311881E05F0DBFE07A10348FCF7E4
:107CE0009AFC0AB070BD0000C0140020C012002031
:107CF000202D2D4F4C2D2D002D2D4F4C2D2D0000C6
:107D000000B591B014210CA8FCF7EAFD142107A8D6
:107D1000FCF7E6FD0020049005900690019002908B
:107D200003908C48007940B18B48007828B98B4883
:107D3000C07A012801D011B000BD8948007801281F
:107D400006D188480068884908608848006848600B
:107D500007A90CA8FFF788FD85490868FFF734FFDD
:107D6000814800687F4908607F4840687F49086013
:107D700080480078042802D106F046F8DBE77D4809
:107D8000007800B1D7E701227BA10CA8FCF731FCF9
:107D9000012279A107A8FCF72CFC03220CA9774843
:107DA000FCF7C5FD2C207549C87007220DA9734842
:107DB000001DFCF7BCFD03220DF13B016F480B30A9
:107DC000FCF7B5FD2C206D498873032207A96B4889
:107DD0000F30FCF7ACFD2C2068498874072208A9F5
:107DE00066481330FCF7A3FD03220DF12701634819
:107DF0001A30FCF79CFD00206049487757484079CD
:107E0000002862D104220CA901A8FCF790FD0020F3
:107E10008DF808004FF6E07105F08AFE322301AAC2
:107E20009821052005F034FE07220DA901A8FCF7D2
:107E30007EFD00208DF80B00502301AA7C216920D3
:107E400005F026FE03220DF13B0101A8FCF76FFDB2
:107E500000208DF80700322301AA9821D80005F0F0
:107E600017FE40F2FF71002005F062FE042207A910
:107E700001A8FCF75CFD00208DF80800322301AA60
:107E8000E521052005F004FE072208A901A8FCF75A
:107E90004EFD00208DF80B00402301AAD6218C2036
:107EA00005F0F6FD03220DF1270101A8FCF73FFDC7
:107EB00000208DF80700322301AAE521D80005F043
:107EC000E7FD00202449087042E02248007930B9DB
:107ED000274A5168106804AA04F060FA17E028489D
:107EE000007848B91C480078012810D1244908704E
:107EF000002004F041FD0AE01D4A5168106804AA00
:107F000004F04CFA0020144908701D4908704FF421
:107F10007841002005F00CFE502304AA78216E2041
:107F200005F0B6FD4FF6E071002005F001FE2423B8
:107F30000CAAC821822005F0ABFD40F2FF710020A1
:107F400005F0F6FD242307AAF021822005F0A0FD0C
:107F500000BFF0E668140020241200205014002016
:107F6000C014002024000020080000202800002069
:107F70001000002014010020200000003416002012
:107F8000251200202DE9FF4700200090F7480078D7
:107F9000012803D108F0C0FABDE8FF87F448007853
:107FA000002877D04FF6FF71002005F0C1FDF148A1
:107FB000C07A00283AD1F048007850B1EF4AF0A1D9
:107FC00001A8FCF795F9EF494868694609F0DCFC1F
:107FD000BCE0ED484268016801A804F025F8EB48D0
:107FE0004078012807D0E9484078042803D0E748C2
:107FF0004078052804D1E6A101A8FCF7A4FBA5E080
:10800000E2484078032804D1E2A101A8FCF79BFBD9
:108010009CE0DE484078022803D0DC4840780628FF
:10802000D6D1DDA101A8FCF78EFB8FE0D148C07A44
:10803000032854DBCF48C07A082850DCCD4880782C
:1080400048BBCD48007848B1CC4ACDA101A8FCF787
:108050004FF9D2A16846FCF795FC77E0C549C97A8B
:10806000C44A515CCE4A32F9110011F0A1FD81469B
:10807000CC4911F09FFC064611F002FC07463A4637
:108080000B46C9A101A8FCF733F9C4A101A8FCF76C
:108090005AFB5BE0D2E0FFE7B748007878B1B74A17
:1080A000B7A101A8FCF724F9B249C97AC91EC04A90
:1080B00002EBC1014868694609F066FC46E0AD483C
:1080C000C07AC01EBA4B03EBC0004268A948C07A10
:1080D000C01E53F8301001A803F0A6FF36E0A548F3
:1080E000C07A092819D1A448007850B1A34AA4A1A4
:1080F00001A8FCF7FDF8AF494868694609F044FC5F
:1081000024E0AC484268016801A803F08DFF9F4855
:10811000817801A803F0A4FF18E09748007850B1D7
:10812000964A97A101A8FCF7E3F8A3494868694675
:1081300009F02AFC0AE0A0484268016801A803F09F
:1081400073FF9248817801A803F08AFF8A4800787B
:10815000A8B1884AD27A994B03EBC202D188854AEA
:10816000D27A03EBC2029288483290B218236A4650
:1081700005F02EF900214FF6FF7005F0D9FC7D4A7D
:10818000D27A8E4B03EBC202D1887A4AD27A03EBC1
:10819000C2029088182301AA05F07AFC00214FF64C
:1081A000FF7005F0C5FC7348007B042824D1714A98
:1081B000D27A824B03EBC202D1886E4AD27A03EBA9
:1081C000C2029288483290B218230DF10A0205F0DB
:1081D000FFF8684AD27A794B03EBC202D188654A2C
:1081E000D27A03EBC2029288543290B218230DF176
:1081F0000B0205F0EDF820E05E48017B01A808F0D5
:10820000BDFC01A946185B48017B01A808F0B6FC3B
:108210005849C97A694A02EBC10189880C2212FBCC
:10822000001087B25348C07A644A02EBC000C1888C
:1082300018233246384605F0CBF8ADE6002412E1AB
:1082400001ADA4BB4B48005D20B95DA101A8FCF7BE
:108250004FF8EBE04C484268016801A803F0E4FEE7
:108260004A484078012807D048484078042803D07D
:1082700046484078052804D145A101A8FCF763FAD7
:10828000D4E042484078032804D142A101A8FCF779
:108290005AFACBE03D484078022803D03B4840786A
:1082A0000628D6D13CA101A8FCF74DFABEE0FFE7B5
:1082B000012C0CD14548007800EB8000444901EBCB
:1082C00040002C49497801EB81014518AEE0022CB1
:1082D0000CD13E480078C0EBC0003E4901EB4000A5
